:100000000129FF3FFF3FFF3FFF00030E8301A700D1
:100010000408A6000A08A8008A017108AC0070084C
:10002000AB0001300C05F2007208013A031D4428B0
:1000300000302106031D1E2800302006031D432822
:100040002308003C031D26282208003C03182D2805
:100050000130A202031CA30343281030A200003089
:10006000A3000430F4002408F0002508F10074080F
:1000700003193F28F00DF10D7010FF3F382870086C
:10008000A2007108A3000C102C08F1002B08F0004E
:1000900028088A0026088400270E8300FF0E7F0EA2
:1000A00009000313831207100130A0000030A100E3
:1000B00087100B130800031383120714A001A1017A
:1000C000A201A3010B170800031383169101073047
:1000D00083129900FF30831685003F30950081011F
:1000E000FC3087008B17353083129000071087147F
:1000F0000800013003138312A9000030AA00003069
:1001000085190130F1007108013A03199F28003068
:10011000871A0130F1007108013A03199F28003055
:10012000071A0130F1007108013A03199F280030C5
:10013000851A0130F1007108013A031DA528A901B3
:10014000AA010330A4000030A5000030051A0130D8
:10015000F1007108003A0319C42800300519013074
:10016000F1007108003A0319C428003085180130E5
:10017000F1007108003A0319C42801300505F100A7
:100180007108003A031DCA28A901AA010430A4007D
:100190000030A500003007190130F1007108013A64
:1001A000031DD828A901AA010230A4000030A5002F
:1001B000003087190130F1007108003A031DE6286C
:1001C000A901AA010130A4000030A50000302A06D0
:1001D000031DEC2801302906031DF0285120F128C9
:1001E0005B200800003003138312A0000030A10040
:1001F0000030A4000030A5001030A2000030A300A1
:100200000800F2206420792003290529FF3FFF3FE1
:02400E00D43CA0
:00000001FF
