:100000003EEF1BF0FFFFFFFF02EF01F000010AAE21
:10001000029E000E1200FFFF0EC091F20DC090F282
:100020000CC08FF20BC08EF20AC08DF209C08CF2A8
:1000300008C08BF207C08AF206C089F205C088F2B8
:1000400004C087F203C086F202C085F201C084F2C8
:1000500000C083F2E8CF69F1D8CF6AF1E0CF6BF14D
:10006000E9CF65F1EACF66F1E1CF67F1E2CF68F160
:10007000F2A436D0D7EC06F024C001F0242A0150B7
:100080003C0A1FE1E5EC06F0246A610E0101706F85
:10009000000E716F3EEC07F0800E006E800E0001C6
:1000A000A819005C02E1A751000808E22150010AEA
:1000B00005E1A7C05FF0FAEC0BF003D05F6AFAEC41
:1000C0000BF0000E261802E1000E251804E025C0F2
:1000D0005FF0FAEC0BF05D0ED76E3D0ED66EF2942B
:1000E0009EA062D02750010A03E104EC0CF003D07B
:1000F000000155EC0CF00001000E291802E1000E81
:100100002818000112E0010EF315016E0150010ADA
:100110000CE12A50010A09E12850AB272950AC23F1
:10012000000E29BEFF0EAD23AE2300012A50010AA6
:1001300015E1800E006E800E6819005C08E16751C1
:10014000000805E16651000802E16551010803E27B
:10015000F381829A02D00001828A03D00001F391D8
:10016000828AAB0E0101706F000E716F3EEC07F0DA
:10017000F1C070F1F2C071F146EC0DF02750010AA8
:100180000DE11A6A1B6A1C6A1D6A0001AF6BB06B35
:10019000B16BB26BAB6BAC6BAD6BAE6B0001E00ED9
:1001A000CF6E9F0ECE6E9E90000169C1E8FF6AC1BE
:1001B000D8FF6BC1E0FF65C1E9FF66C1EAFF67C117
:1001C000E1FF68C1E2FF91C20EF090C20DF08FC254
:1001D0000CF08EC20BF08DC20AF08CC209F08BC2FB
:1001E00008F08AC207F089C206F088C205F087C20B
:1001F00004F086C203F085C202F084C201F083C21B
:1002000000F0100003C082F202C081F201C080F24F
:1002100000C07FF2E9CF65F1EACF66F1E1CF67F187
:10022000E2CF68F1F2A218D082A007D019501526AB
:10023000000E1622172218220ED019C000F0000E50
:10024000016E026E036E0050155E0150165A025088
:10025000175A0350185AF292A4A411D0B68AB6AA1B
:1002600007D0010E1A26000E1B221C221D2206D0CA
:10027000010E1A5E000E1B5A1C5A1D5AA49465C129
:10028000E9FF66C1EAFF67C1E1FF68C1E2FF82C220
:1002900003F081C202F080C201F07FC200F01100C1
:1002A0000001026A016A006A086A036A000E12000D
:1002B00000010B840BAE64EF01F0010E036E026AC5
:1002C000016A006A0A360232FF0E120000010B8238
:1002D0000BAE71EF01F003680268016800680A362E
:1002E0000232FF0E120000010C6A0E6A0250D8A4FE
:1002F0008DEF01F001C002F000C001F0006A0E862F
:100300000250D8A48DEF01F001C002F0016A0E96F0
:100310000E880250D8B49FEF01F00E50035ED8A4AF
:10032000D8A0A5EF01F0D89002BEABEF01F00036E7
:1003300001360236032E94EF01F0A5EF01F0010E15
:100340000C6E50EC01F0AFEF01F0020E0C6E58ECA9
:1003500001F0AFEF01F0040E0C6E06EC00F012009D
:1003600000010CB0F3EF01F00CA29BEF02F00E6A5B
:10037000000E02640AEF02F0F00E0214D8A4D5EFCA
:1003800001F0023A01380F0B02260138F00B016E22
:1003900000380F0B01260038F00B006E08380F0BE9
:1003A00000260838F00B086E0E84D89002BEEEEFDF
:1003B00001F008360036013602360E2A02BEEEEF94
:1003C00001F008360036013602360E2A02BEEEEF84
:1003D00001F008360036013602360E2A0E5003644C
:1003E0008FEF02F0035E0BBC08AE95EF02F0D880F1
:1003F000800E08640030000E002201220222D8A0E4
:1004000095EF02F0023201320032034A9BEF02F014
:1004100095EF02F001C002F000C001F008C000F04A
:10042000086A000E0E86026441EF02F0F00E02141C
:10043000D8A429EF02F0023A01380F0B0226013846
:10044000F00B016E00380F0B01260038F00B006E28
:100450000E84D89002BEEEEF01F00036013602366F
:100460000E2A02BEEEEF01F00036013602360E2AE9
:1004700002BEEEEF01F00036013602360E2AEEEF34
:1004800001F001C002F000C001F0006A000E0E96FB
:100490000E8802646EEF02F0F00E0214D8A459EF39
:1004A00002F0023A01380F0B02260138F00B016E00
:1004B0000E84D89002BEEEEF01F0013602360E2A0D
:1004C00002BEEEEF01F0013602360E2A02BEEEEF5A
:1004D00001F0013602360E2AEEEF01F001C002F003
:1004E000016A000E0E860264A1EF02F0F00E021403
:1004F000D8A47DEF02F0023A0E84D89002BEEEEF4F
:1005000001F002360E2A02BEEEEF01F002360E2A8C
:1005100002BEEEEF01F002360E2AEEEF01F0010E00
:100520000C6E58EC01F0A5EF02F0020E0C6E06EC1A
:1005300000F0A5EF02F0040E0C6E66EC01F0A5EFE2
:1005400002F0080E0C6E50EC01F0120000010B805E
:100550000BAEB3EF02F0026A0AAEFF0E026E016E3E
:10056000006E0A360232FF0E12000001220E0C6EDF
:10057000086A096A0A6A0B6A0C06D8B4E2EF02F04C
:10058000D8900B320A320932083203320232013279
:100590000032D8A0BCEF02F00C06D8B4DAEF02F0BB
:1005A000045008260550092206500A2207500B2243
:1005B000C1EF02F0045008260550092206500A2215
:1005C00007500B221200000100C008F00150006E1D
:1005D000016A026A036A0B6A0C6A016A026A036AA8
:1005E000960E036E0A6A00AEFCEF02F0081E001EB3
:1005F000082AD8B4002A0A8E00C001F008C000F012
:10060000086A026A73EC01F0120000010050086EE3
:100610000150006E0250016E0350026E036A0B6AB5
:100620000C6A9E0E036E0A6A02AE23EF03F0081EE8
:10063000001E011E021E082AD8B4002AD8B4012ABE
:10064000D8B4022A0A8E020E0C6EB0EC01F0120031
:100650000001086A096A000E07620364AEEF03F046
:10066000025006180A6E075003267E0ED8A03FEFF0
:1006700003F0035ED8B0B3EF03F043EF03F0035E83
:10068000D8A0B8EF03F0028E068E02C00EF001C0B3
:100690000BF000C00DF000500402F4CF0CF001503C
:1006A0000502F4CF00F0F3CF08F00402F3500C265B
:1006B000F4500822000E00220D500502F3500C26C3
:1006C000F4500822000E002202500402F3500826C3
:1006D000F450002202500502016A000E0122F3507C
:1006E0000026F45001220D500602F3500826F45063
:1006F0000022026A000E012202220B500602F35071
:100700000026F4500122000E02220E500602F35081
:100710000126F450022202BE96EF03F0083600369E
:10072000013602360306D8B4B8EF03F0A9EF03F0A0
:10073000D880800E08640030000E002201220222C0
:10074000D8A0A9EF03F0023201320032034AB3EF1E
:1007500003F00AAE029E000EBBEF03F0010E50EC58
:1007600001F0BBEF03F0020E66EC01F0BBEF03F00B
:10077000040E58EC01F012000001025006180E6E33
:10078000086A096A0B6A03500764B0EF04F0065068
:100790000A6E068E028E03500B6E0750036E000E1B
:1007A0000B6400EF04F00B50075ED8B4A1EF04F027
:1007B000070E07646FEF04F0075E00C008F001C089
:1007C00000F002C001F0026A074EA1EF04F00764D6
:1007D00044EF04F0075E00C008F001C000F0016AB9
:1007E000074EA1EF04F0076422EF04F0075E00C09B
:1007F00008F0006A074EA1EF04F0076409EF04F067
:100800000AC002F005C001F004C000F0086ACDEF94
:1008100005F0030E076414EF04F0075E08380F0BB1
:10082000086E074EA1EF04F0D8900832074EA1EFF2
:1008300004F0D8900832074EA1EF04F0D8900832A7
:10084000A1EF04F0030E076433EF04F0075E0838ED
:100850000F0B086E0038F00B082600380F0B006EE7
:10086000074EA1EF04F0D89000320832074EA1EFF6
:1008700004F0D89000320832074EA1EF04F0D8906F
:1008800000320832A1EF04F0030E07645BEF04F0BE
:10089000075E08380F0B086E0038F00B082600388A
:1008A0000F0B006E0138F00B002601380F0B016EA4
:1008B000074EA1EF04F0D890013200320832074E03
:1008C000A1EF04F0D890013200320832074EA1EFB8
:1008D00004F0D890013200320832A1EF04F0030E88
:1008E00007648CEF04F0075E08380F0B086E0038C1
:1008F000F00B082600380F0B006E0138F00B0026B5
:1009000001380F0B016E0238F00B012602380F0B75
:10091000026E074EA1EF04F0D8900232013200328D
:100920000832074EA1EF04F0D890023201320032B3
:100930000832074EA1EF04F0D890023201320032A3
:100940000832096A000E0EAE95EF05F0081E001E73
:10095000011E021E082A00220122022295EF05F044
:100960000750D8A4B6EF04F0CDEF05F0096A02C035
:100970000AF0028E068E0750035C076ED8B488EF2B
:1009800005F0070E076456EF05F0075E0450096E88
:100990000550046E0650056E066A074E88EF05F096
:1009A000070E07642BEF05F0075E0450096E055033
:1009B000046E056A074E88EF05F0070E076409EF1D
:1009C00005F0075E0450096E046A074E88EF05F0D3
:1009D000070E0764F0EF04F00AC002F0CDEF05F057
:1009E000030E0764FBEF04F0075E09380F0B096E76
:1009F000074E88EF05F0D8900932074E88EF05F0D2
:100A0000D8900932074E88EF05F0D890093288EF68
:100A100005F0030E07641AEF05F0075E09380F0BA7
:100A2000096E0438F00B092604380F0B046E074ECC
:100A300088EF05F0D89004320932074E88EF05F0B0
:100A4000D89004320932074E88EF05F0D89004326E
:100A5000093288EF05F0030E076442EF05F0075EE8
:100A600009380F0B096E0438F00B092604380F0BF8
:100A7000046E0538F00B042605380F0B056E074E83
:100A800088EF05F0D890053204320932074E88EF1E
:100A900005F0D890053204320932074E88EF05F090
:100AA000D89005320432093288EF05F0030E07644E
:100AB00073EF05F0075E09380F0B096E0438F00B71
:100AC000092604380F0B046E0538F00B0426053890
:100AD0000F0B056E0638F00B052606380F0B066E59
:100AE000074E88EF05F0D8900632053204320932FD
:100AF000074E88EF05F0D8900632053204320932ED
:100B0000074E88EF05F0D8900632053204320932DC
:100B1000086A000E0EAE95EF05F0091E041E051EB4
:100B2000061E092A0422052206220950082604501E
:100B3000002205500122065002220EBEACEF05F045
:100B4000D8A0BBEF05F00232013200320832033E7A
:100B5000BBEF05F0C7EF05F0D8B0C1EF05F0000E10
:100B6000081E001E011E021E082A00220122022267
:100B70000A7EC1EF05F0010E0C6EB0EC01F0CFEF74
:100B800005F0020E0C6EB0EC01F0CFEF05F0040E94
:100B90000C6E66EC01F0CFEF05F0000E0C6E12004B
:100BA00000010A6A0350D8A40A800750D8A40A8218
:100BB0000A50D8B434EF06F0030AD8B4EDEF05F0CC
:100BC0000AB0E8EF05F006AE32EF06F030EF06F0BF
:100BD00002AE30EF06F032EF06F00250800B0A6EE4
:100BE000029E0650800B069E0A18D8B4FEEF05F050
:100BF0000A50D8B430EF06F032EF06F00750035C2D
:100C0000D8B408EF06F0D8A024EF06F02AEF06F0DB
:100C10000650025CD8B412EF06F0D8A024EF06F01C
:100C20002AEF06F00550015CD8B41CEF06F0D8A0FE
:100C300024EF06F02AEF06F00450005CD8B434EF3D
:100C400006F0D8B02AEF06F00A52D8B432EF06F018
:100C500030EF06F00A52D8B430EF06F032EF06F06B
:100C6000D8801200D8901200D880D88412001200C8
:100C700000010B6A0350D8B47FEF06F002500A6EF1
:100C8000028E8E0E035E03AE83EF06F0036C080E39
:100C9000035CD8A05EEF06F0036E013602C001F0DF
:100CA000026A080E035CD8A05EEF06F0036E013600
:100CB000016A0350D8A4D89068EF06F00350D8B466
:100CC00068EF06F0D89002320132032E62EF06F090
:100CD0000BBC01A075EF06F0D8A075EF06F0012A55
:100CE000D8B4022A02BE92EF06F00AAE98EF06F0E0
:100CF000021E011E012AD8B4022A98EF06F0026AE9
:100D0000016A98EF06F00B800BAE9CEF06F0026ACA
:100D10000AAE9CEF06F0FF0E026E016E0A3602323A
:100D20009CEF06F0010E0C6EA6EC02F09EEF06F0B2
:100D3000000E0C6E9EEF06F0FF0E0C6E0150006E62
:100D40000250016E120000010D6A03AEB3EF06F00F
:100D5000001E011E021E031E000E002A0122022296
:100D60000322810E0D2607AEC0EF06F0041E051EFD
:100D7000061E071E000E042A0522062207220D2A3F
:100D8000B5EC02F00DA0D6EF06F0001E011E021E0B
:100D9000031E081E091E0A1E0B1E000E002A012239
:100DA00002220322082209220A220B2212001E0616
:100DB0001F501E5C03E2838ADFEF06F0839A1E5009
:100DC000000A02E120C01EF012000101706B716B7D
:100DD0008390FF0EC96E0101010EC714016E015010
:100DE000000AF9E0C9CF70F1FF0EC96E0101010ED2
:100DF000C714016E0150000AF9E0C9CF71F1838078
:100E000071A50AD0D00E0001656F070E666F000E47
:100E1000676F686FA96B31D000012150010A02E1B0
:100E2000A98102D00001A991050E006E70C165F084
:100E3000000E666F005005E0653765916637FF0F5D
:100E4000FAD7000171C100F00032009E0032009E0E
:100E50000032009E000E676F686F00506527D8B0A3
:100E6000662B000E676F686F66336533669F663367
:100E70006533669F000E676F686F1200480E0101B0
:100E80007025E96E000E7121EA6EEECF96F10E0E1E
:100E90007025E96E000E7121EA6EEECF7AF1EECF89
:100EA0007BF1EECF7CF1EECF7DF10C0E7025E96E7B
:100EB000000E7121EA6EEECF97F1EECF98F1120E8F
:100EC0007025E96E000E7121EA6EEECF7EF1EECF55
:100ED0007FF1000E7FBFFF0E806F816F000E7FBF1E
:100EE000FF0E806F816F140E7025E96E000E712168
:100EF000EA6EEECF82F1EECF83F1EECF84F1EECF4A
:100F000085F1440E7025E96E000E7121EA6EEECF78
:100F100099F1EECF9AF1180E7025E96E000E71214D
:100F2000EA6EEECF8EF1EECF8FF1EECF90F1EECFF5
:100F300091F170C1E9FF71C1EAFFEECF08F0EECF89
:100F400009F0EECF0AF0EECF0BF0040E7025E96E3B
:100F5000000E7121EA6EEECF04F0EECF05F0EECF79
:100F600006F0EECF07F008C000F009C001F00AC09B
:100F700002F00BC003F00450005E0550015A065009
:100F8000025A0750035A00C072F101C073F102C047
:100F900074F103C075F1080E7025E16E000E712129
:100FA000E26E00C0E6FF01C0E6FF02C0E6FF03C03C
:100FB000E6FF000E006E7D1908E100507C1905E186
:100FC00000507B1902E17A51000A50E0800E7D1931
:100FD000006E800E7519005C08E174517C5D05E1BE
:100FE00073517B5D02E172517A5D10E27AC172F158
:100FF0007BC173F17CC174F17DC175F1480E702520
:10100000E16E000E7121E26EE66A30D00101046AE1
:10101000056A066A076A7A51045E7B51055A7C515B
:10102000065A7D51075A800E7519006E800E0718FA
:10103000005C08E10650745D05E10550735D02E156
:101040000450725D13E2726B736B746B756B7A5143
:10105000725F7B51735B7C51745B7D51755B480E95
:101060007025E16E000E7121E26EE66A0101010158
:10107000800E98BF7F0E006E800E7519005C0CE12B
:10108000000E98BFFF0E006E7451005C05E17351B5
:10109000985D02E17251975D12E297C100F098C12C
:1010A00001F0000E98BFFF0E026E036E0050725FDB
:1010B0000150735B0250745B0350755B34D00101C7
:1010C00097510008046E98C105F0E86A0556800E35
:1010D0007519006E800E05BE7F0E005C0CE1000EDF
:1010E00005BEFF0E745D07E1000E05BEFF0E735DC9
:1010F00002E10450725D0AE29751722798517323FE
:10110000000E98BFFF0E742375230DD00101726B82
:10111000736B746B756B1C0E7025E16E000E712184
:10112000E26EE66AE66A1C0E7025E96E000E712119
:10113000EA6EEECF86F1EECF87F1000E87BFFF0E8D
:10114000886F896F000E87BFFF0E886F896F965179
:10115000000AD8B466D0490E7025E96E000E7121E0
:10116000EA6EEECF04F00450000A08E172518627BF
:10117000735187237451882375518923000E006EA3
:10118000811908E10050801905E100507F1902E142
:101190007E51000A42E0800E8119006E800E89198E
:1011A000005C08E18851805D05E187517F5D02E1C7
:1011B00086517E5D09E27EC186F17FC187F180C1E3
:1011C00088F181C189F129D00101046A056A066AA2
:1011D000076A7E51045E7F51055A8051065A81513B
:1011E000075A800E8919006E800E0718005C08E10E
:1011F0000650885D05E10550875D02E10450865D7B
:101200000CE2866B876B886B896B7E51865F7F51A2
:10121000875B8051885B8151895B0101010101017C
:1012200004D0866B876B886B896B01011C0E70255F
:10123000E16E000E7121E26E86C1E6FF87C1E6FF16
:101240001E0E7025046E000E7121056E04C0E9FFAC
:1012500005C0EAFFEECF00F0EECF01F0EECF02F0D6
:10126000EECF03F072C18AF173C18BF174C18CF1BE
:1012700075C18DF100508A5F01508B5B02508C5B11
:1012800003508D5B04C0E1FF05C0E2FF72C1E6FFC1
:1012900073C1E6FF74C1E6FF75C1E6FF000E006E84
:1012A000851908E10050841905E10050831902E115
:1012B0008251000A42E0800E8519006E800E8D1961
:1012C000005C08E18C51845D05E18B51835D02E196
:1012D0008A51825D09E282C18AF183C18BF184C1A6
:1012E0008CF185C18DF129D00101046A056A066A75
:1012F000076A8251045E8351055A8451065A85510A
:10130000075A800E8D19006E800E0718005C08E1E8
:1013100006508C5D05E105508B5D02E104508A5D4D
:101320000CE28A6B8B6B8C6B8D6B82518A5F835165
:101330008B5B84518C5B85518D5B01010101010147
:10134000220E7025E16E000E7121E26E8AC1E6FF69
:101350008BC1E6FF8CC1E6FF8DC1E6FF70C1E9FFDE
:1013600071C1EAFFEECF92F1EECF93F1EECF94F19F
:10137000EECF95F1260E7025046E000E7121056EDC
:1013800004C0E9FF05C0EAFFEECF00F0EECF01F0A8
:10139000EECF02F0EECF03F00050925F0150935B6E
:1013A0000250945B0350955B70C1E9FF71C1EAFF85
:1013B000EECF00F0EECF01F0EECF02F0EECF03F073
:1013C00004C0E1FF05C0E2FF00C0E6FF01C0E6FF88
:1013D00002C0E6FF03C0E6FF000E006E911908E1AF
:1013E0000050901905E100508F1902E18E51000A5A
:1013F00042E0800E9119006E800E9519005C08E1A4
:101400009451905D05E193518F5D02E192518E5DA3
:1014100009E28EC192F18FC193F190C194F191C113
:1014200095F129D00101046A056A066A076A8E519E
:10143000045E8F51055A9051065A9151075A800EF9
:101440009519006E800E0718005C08E10650945D47
:1014500005E10550935D02E10450925D0CE2926B50
:10146000936B946B956B8E51925F8F51935B905100
:10147000945B9151955B0101010101012A0E7025D8
:10148000E16E000E7121E26E92C1E6FF93C1E6FFAC
:1014900094C1E6FF95C1E6FF9B6B9C6B9651000AD9
:1014A000D8B490D12E0E7025E96E000E7121EA6E2F
:1014B000EECF00F0EECF01F0E3EC02F000C0A2F1BD
:1014C00001C0A3F102C0A4F103C0A5F1300E0101D7
:1014D0007025E96E000E7121EA6EEECF9EF1EECF1F
:1014E0009FF1EECFA0F1EECFA1F172C100F073C178
:1014F00001F074C102F075C103F005EC03F09EC168
:1015000004F09FC105F0A0C106F0A1C107F028ECCE
:1015100003F0A2C104F0A3C105F0A4C106F0A5C167
:1015200007F0BCEC03F000C09EF101C09FF102C0C7
:10153000A0F103C0A1F11C0E01017025E96E000E9F
:101540007121EA6EEECF00F0EECF01F0E3EC02F095
:10155000340E01017025E96E000E7121EA6EEECFA6
:1015600004F0EECF05F0EECF06F0EECF07F028EC5A
:1015700003F09EC104F09FC105F0A0C106F0A1C117
:1015800007F0BCEC03F000C0A2F101C0A3F102C05F
:10159000A4F103C0A5F1380E01017025E96E000E1B
:1015A0007121EA6EEECF9EF1EECF9FF1EECFA0F16A
:1015B000EECFA1F1220E7025E96E000E7121EA6EC8
:1015C000EECF00F0EECF01F0EECF02F0EECF03F061
:1015D00005EC03F09EC104F09FC105F0A0C106F028
:1015E000A1C107F028EC03F0A2C104F0A3C105F0EB
:1015F000A4C106F0A5C107F0BCEC03F000C09EF149
:1016000001C09FF102C0A0F103C0A1F19EC176F11B
:101610009FC177F1A0C178F1A1C179F170C1E9FF53
:1016200071C1EAFFEECF00F0EECF01F0EECF02F095
:10163000EECF03F005EC03F03C0E01017025E96EDE
:10164000000E7121EA6EEECF04F0EECF05F0EECF82
:1016500006F0EECF07F028EC03F09EC104F09FC126
:1016600005F0A0C106F0A1C107F0BCEC03F000C07A
:101670009EF101C09FF102C0A0F103C0A1F19EC183
:1016800076F19FC177F1A0C178F1A1C179F12A0E5D
:1016900001017025E96E000E7121EA6EEECF00F0B7
:1016A000EECF01F0EECF02F0EECF03F005EC03F049
:1016B000400E01017025E96E000E7121EA6EEECF39
:1016C00004F0EECF05F0EECF06F0EECF07F028ECF9
:1016D00003F09EC104F09FC105F0A0C106F0A1C1B6
:1016E00007F0BCEC03F000C09EF101C09FF102C006
:1016F000A0F103C0A1F19EC176F19FC177F1A0C115
:1017000078F1A1C179F101019D6B99C100F09AC1F5
:1017100001F0E3EC02F09EC104F09FC105F0A0C10E
:1017200006F0A1C107F0D0EC05F0010ED8B0000E14
:10173000006E005208E099C19BF19AC19CF1010E24
:1017400001019D6F3CD0010199510008006E9AC1C2
:1017500001F0E86A0156E3EC02F000C004F001C0B9
:1017600005F002C006F003C007F076C100F077C1B3
:1017700001F078C102F079C103F0D0EC05F0010E60
:10178000D8B0000E006E00520BE001019951000824
:101790009B6F9AC19CF1E86A9C57010E9D6F0FD018
:1017A000010176C100F077C101F078C102F079C182
:1017B00003F038EC06F000C09BF101C09CF1000181
:1017C000000104D001019B6B9C6B9D6B460E0101D7
:1017D0007025E16E000E7121E26E9BC1E6FF9CC197
:1017E000E6FF490E7025E16E000E7121E26E9DC18B
:1017F000E6FF12005F50FF08016E01C01FF001C03C
:101800001FF01F321F9E12002250010A00E115C076
:10181000ABF016C0ACF017C0ADF018C0AEF01AC0F7
:1018200000F01BC001F01CC002F01DC003F0D00E80
:10183000046E070E056E000E066E076EA3EC06F032
:10184000080E086E67CF04F0000E056E0850000108
:1018500005E0043604900536FF0FF9D7000E066E3A
:10186000076E045000240001AF6F05500120B06FD7
:1018700006500220B16F07500320B26F66CF00F010
:10188000000E016E026E036E0050AF270150B023B0
:101890000250B1230350B223156A166A176A186AF8
:1018A0001A6A1B6A1C6A1D6A12000101706B716B57
:1018B000726B736B746B756B766B776B800E770ADC
:1018C000006E800E0001AE19005C08E1AD513508D4
:1018D00005E1AC51940802E1AB51000811E3800E20
:1018E000770A006E800E0001B219005C08E1B15168
:1018F000350805E1B051940802E1AF51000811E24A
:10190000000E0101706F7C0E716F280E726FE80E71
:10191000736FC00E746FF20E756FFC0E766FFF0E54
:10192000776F800E0001AE19006E800E880A005C91
:1019300008E1CA0EAD5D05E16C0EAC5D02E1000E82
:10194000AB5D11E3800E0001B219006E800E880AB3
:10195000005C08E1CA0EB15D05E16C0EB05D02E10C
:10196000000EAF5D11E2000E0101706F840E716F09
:10197000D70E726F170E736F400E746F0D0E756F6A
:10198000030E766F000E776F000E006E0101731963
:1019900008E10050721905E10050711902E170511F
:1019A000000A29E0010170510001AB2701017151CA
:1019B0000001AC23010172510001AD2301017351FB
:1019C0000001AE23010170510001AF2701017151E7
:1019D0000001B023010172510001B12301017351D3
:1019E0000001B223010174511A2675511B22765150
:1019F0001C2277511D2215500001AB271650AC2335
:101A00001750AD231850AE23156A166A176A186A64
:101A10001AC000F01BC001F01CC002F01DC003F092
:101A2000D00E046E070E056E000E066E076EA3EC58
:101A300006F0080E086E67CF04F0000E056E085021
:101A4000000105E0043604900536FF0FF9D70001C8
:101A5000000E066E076E04500024AF6F0550012083
:101A6000B06F06500220B16F07500320B26F66CFEF
:101A700000F0000E016E026E036E0050AF270150A1
:101A8000B0230250B1230350B22312000101726B44
:101A9000736B800E7119006E800E005C02E1000E07
:101AA000705D11E2016A81B4012A0150010AD8B4C3
:101AB000232A0101819470510008726F71C173F182
:101AC000E86A73570ED00101016A81B4012A0150FE
:101AD000000AD8B4232A0101818470C172F171C156
:101AE00073F173C178FF72C179FF1200016AACB261
:101AF000012A0150000A02E10000F8D779C2ADFFC7
:101B0000120079C27DF27AC27EF27DC202F07EC2FC
:101B100003F002017D4B7E2B7BC2E9FF7CC2EAFF12
:101B20007B4B7C2BEECF00F002C0E1FF03C0E2FF55
:101B300000C0E6FF02C0E9FF03C0EAFFEECF00F0FD
:101B40000052E3E179C200F07AC201F01200000114
:101B5000086B080E0C6E003408360450085ED8B0CE
:101B6000B4EF0DF00826D89000360C2EABEF0DF038
:101B7000120002017951200A08E079510D0803E3AF
:101B8000090E795D02E2006A02D0010E006E1200B9
:101B900002017951390807E3300E795D04E3010E43
:101BA000006ED4EF0DF0006A120000010350071818
:101BB000D8A4EAEF0DF002500618D8A4EAEF0DF011
:101BC00001500518D8A4EAEF0DF000500418D8B45D
:101BD000D8841200D89412001200A69C61C2A9FFFA
:101BE000A69EA680A8CF00F0120061C2E9FF62C2E3
:101BF000EAFFEECF01F00150000A0CE061C2E9FFFC
:101C000062C2EAFFEECF79F276EC0DF00201614B91
:101C1000622BEBD712004E0E0201676F610E686FE8
:101C20004E0E696F6A6B300E6B6F6C6B490E6D6F89
:101C30004E0E6E6F460E6F6F706B716B746B61C280
:101C400075F262C276F263C277F264C278F27851BA
:101C5000FF0A08E17751FF0A05E17651FF0A02E128
:101C60007551FF0A0EE165C279F266C27AF2670E1B
:101C700002017B6F020E7C6F81EC0DF0030E006E93
:101C80001200010E0201726F77AF0AD0777F722BBC
:101C900065C2E1FF66C2E2FF2D0EE66E654B662B64
:101CA000000E006E0201781908E10050771905E175
:101CB0000050761902E17551000A0DE165C279F212
:101CC00066C27AF26B0E02017B6F020E7C6F81ECB2
:101CD0000DF0006A1200020178517F0A08E1775185
:101CE000800A05E17651000A02E17551000A0EE111
:101CF00065C279F266C27AF26D0E02017B6F020E46
:101D00007C6F81EC0DF072C200F01200000E046EC8
:101D1000000E056E000E066E7F0E076E75C200F097
:101D200076C201F077C202F078C203F0D0EC05F081
:101D3000010ED8B0000E006E00521DE075C200F01A
:101D400076C201F077C202F078C203F0000E046E92
:101D5000000E056E200E066E820E076E28EC03F054
:101D600000C075F201C076F202C077F203C078F2CB
:101D700002017407CBD70201000E046E000E056E3F
:101D8000200E066E820E076E75C200F076C201F05C
:101D900077C202F078C203F0D0EC05F0000ED8B0A4
:101DA000010E006E00521DE075C200F076C201F017
:101DB00077C202F078C203F0CD0E046ECC0E056E31
:101DC0004C0E066E7B0E076E28EC03F000C075F219
:101DD00001C076F202C077F203C078F20201742BE0
:101DE000CAD70201FF0E7515056EFF0E7615066E39
:101DF0007F0E7715076E000E7815086E05C000F08F
:101E000006C001F007C002F008C003F000360090E1
:101E1000013602360336000E7517000E7617000ED7
:101E20007717FF0E78170050751301507613025084
:101E30007713035078137F0E785D006E00C073F245
:101E4000010E786F005007E0753775917637773758
:101E50007837FF0FF8D702017851300F006E65C256
:101E6000E1FF66C2E2FF00C0E6FF654B662B800E15
:101E70007419006E800E010A005C07E3800E060AEA
:101E8000006E800E7419005C0AE265C2E1FF66C252
:101E9000E2FF2E0EE66E654B662B010E716F060E8D
:101EA000736F7351000A3EE0786B75C200F076C222
:101EB00001F077C202F078C203F0003600900136DC
:101EC00002360336003600900136023603360050E3
:101ED00075270150762302507723035078237537F6
:101EE00075917637773778377851300F006E65C245
:101EF000E1FF66C2E2FF00C0E6FF654B662B715151
:101F0000000A0EE174077451000A0AE165C2E1FF9C
:101F100066C2E2FF2E0EE66E654B662B010E716FF8
:101F20007307BFD7FF0E6525E96EFF0E6621EA6EC7
:101F3000EECF04F00450300A05E1010E655F000E9B
:101F4000665BF0D7FF0E6525E96EFF0E6621EA6E2F
:101F5000EECF04F004502E0A04E1010E655F000E7E
:101F6000665B7451000A43E065C2E1FF66C2E2FFAE
:101F7000650EE66E654B662B800E7419006E800E42
:101F8000000A005C0BE265C2E1FF66C2E2FF2D0EB3
:101F9000E66E654B662B74510008746F74C273F261
:101FA0007451090811E20A0E046E73C200F0A7EC26
:101FB0000DF0300E002665C2E1FF66C2E2FF00C0F0
:101FC000E6FF0201654B662B0A0E046E73C200F039
:101FD000A7EC0DF008C000F0300E002665C2E1FF4E
:101FE00066C2E2FF00C0E6FF0201654B662B65C2D8
:101FF000E1FF66C2E2FFE66A006A1200A6A202D012
:102000000000FCD7A69C61C2A9FF62C2A8FFA69EE1
:10201000A684F29E550EA76EAA0EA76EA682F28E19
:10202000A6941200000100500402F4CF09F0F3CF8F
:1020300008F001500502F4CF0BF0F3CF0AF0005086
:102040000502F3500926F4500A22E86A0B220150D7
:102050000402F3500926F4500A22E86A0B2205AE66
:1020600036EF10F000500A5C01500B5801AE3DEF06
:1020700010F004500A5C05500B5808C000F009C06D
:1020800001F00AC002F00BC003F01200020163511C
:10209000641108E063C2E1FF64C2E2FF61C2E6FFCF
:1020A00062C2E6FF61C2E9FF62C2EAFFEECF00F062
:1020B00000C067F200C079F2B9EC0DF0005204E004
:1020C0000201614B622BEED70201656B67512D0A4D
:1020D00005E1010E656F614B622B06D0020167516D
:1020E0002B0A02E1614B622B0201676B686B696B23
:1020F0006A6B6B6B666B020165B90ED061C2E9FF5A
:1021000062C2EAFFEECF04F004502E0A05E102019C
:102110006589614B622B4BD061C2E9FF62C2EAFF65
:10212000EECF79F2C8EC0DF0005242E00201658377
:102130006751080A36E065B966070201672B68C275
:1021400000F069C201F06AC202F06BC203F00A0E2D
:10215000046E000E056E066E076EA3EC06F000C05E
:1021600068F201C069F202C06AF203C06BF20000BB
:10217000000061C2E9FF62C2EAFFEECF00F0300E5C
:10218000005E016A000E015A0050020168270150EA
:102190006923000E01BEFF0E6A236B2300000000BE
:1021A00003D0020165A9662B0201614B622BA3D704
:1021B0000201676B61C2E9FF62C2EAFFEECF04F081
:1021C0000450650A0AE061C2E9FF62C2EAFFEECF8D
:1021D00004F00450450AD8A47DD00201614B622B63
:1021E00061C2E9FF62C2EAFFEECF04F004502D0A9B
:1021F00004E16587614B622B0CD061C2E9FF62C2CA
:10220000EAFFEECF04F004502B0A03E10201614B18
:10221000622B020161C2E9FF62C2EAFFEECF04F065
:102220000450300A04E10201614B622BF2D761C213
:10223000E9FF62C2EAFFEECF79F2C8EC0DF000527E
:1022400041E061C2E9FF62C2EAFFEECF67F2300E01
:102250000201675F614B622B61C2E9FF62C2EAFF64
:10226000EECF79F2C8EC0DF000522CE00A0E02011C
:102270006703F3CF00F061C2E9FF62C2EAFFEECF6D
:1022800004F0300E045E04500024676F614B622B33
:1022900061C2E9FF62C2EAFFEECF79F2C8EC0DF04D
:1022A000005210E00A0E02016703F3CF00F061C292
:1022B000E9FF62C2EAFFEECF04F0300E045E045084
:1022C0000024676F02010201020165A703D0675174
:1022D0000008676F020167516627000E641902E16A
:1022E000000E63190BE0020165A308D063C2E1FF91
:1022F00064C2E2FF61C2E6FF62C2E6FF020168C299
:1023000000F069C201F06AC202F06BC203F005EC92
:1023100003F000C068F201C069F202C06AF203C0B3
:102320006BF2046A056A066A076A68C200F069C24D
:1023300001F06AC202F06BC203F0D5EC0DF0010EA1
:10234000D8A4000E006E005205E0006A016A026A1D
:10235000036A1200800E02016619006E800E000AE8
:10236000005CD8B07BD066510008666F800E020119
:102370006619006E800E0A0A005C1EE368C200F057
:1023800069C201F06AC202F06BC203F0FF0E046E74
:10239000E60E056E5B0E066E5D0E076E28EC03F012
:1023A00000C068F201C069F202C06AF203C06BF2B9
:1023B0000A0E0201665FDAD702016651000A1DE0CB
:1023C00068C200F069C201F06AC202F06BC203F099
:1023D000CD0E046ECC0E056E4C0E066E7B0E076E97
:1023E00028EC03F000C068F201C069F202C06AF292
:1023F00003C06BF202016607DFD7010E046E000E08
:10240000056E000E066E010E076E68C200F069C20E
:1024100001F06AC202F06BC203F0D0EC05F0010ECD
:10242000D8B0000E006E005217E0010E02016515D3
:10243000006E09E0010E006E000E016E800E026E4D
:10244000030E036E1200010E006E000E016E000EF0
:10245000026E010E036E120002017AD0800E000A95
:10246000006E800E02016619005C72E20A0E020123
:10247000665D1EE368C200F069C201F06AC202F044
:102480006BC203F0F90E046E020E056E150E066E99
:10249000A00E076E28EC03F000C068F201C069F2DC
:1024A00002C06AF203C06BF20A0E0201665FDED759
:1024B00002016651000A1DE068C200F069C201F025
:1024C0006AC202F06BC203F0000E046E000E056ECD
:1024D000200E066E820E076E28EC03F000C068F234
:1024E00001C069F202C06AF203C06BF20201660722
:1024F000DFD768C204F069C205F06AC206F06BC299
:1025000007F0FF0E006EFF0E016E7F0E026EFF0ED3
:10251000036ED0EC05F0010ED8B0000E006E005234
:1025200017E0010E02016515006E09E0FF0E006E56
:10253000FF0E016EFF0E026EFF0E036E1200FF0E05
:10254000006EFF0E016E7F0E026EFF0E036E120014
:102550000201010E02016515006E0DE0000E681902
:10256000006E000E6919016E800E6A19026E000E6F
:102570006B19036E120068C200F069C201F06AC2F2
:1025800002F06BC203F0120050C2F6FF51C2F7FF17
:1025900052C2F8FF0900F5CF00F000521DE050C212
:1025A000F6FF51C2F7FF52C2F8FF0900F5CF00F065
:1025B0004EC2E1FF4FC2E2FF00C0E6FF02014E4BF8
:1025C0004F2B010E5027000E512352234EC2E1FF24
:1025D0004FC2E2FFE66AD8D7120050C254F251C28D
:1025E00055F20201536B02015251535D12E24EC289
:1025F00061F2EDEC0DF054C2E1FF55C2E2FF00C004
:10260000E6FF0201544B552B4E4B4F2B0201532B2F
:10261000EAD712004EC261F24FC262F2F5EC0DF041
:1026200050C261F251C262F252C263F253C264F20A
:10263000540E0201656F020E666F0BEC0EF0540E25
:102640000201616F020E626FF5EC0DF012000001E5
:1026500000C008F00B6A0C6A9E0E036E0A6A026ADA
:10266000016A006A020E0C6EB0EC01F0120050C25A
:1026700054F251C255F20201536B5251535D12E2B2
:102680004EC261F254C2E9FF55C2EAFFEECF62F2D8
:10269000FEEC0FF002014E4B4F2B544B552B020119
:1026A000532BEBD712004EC2E9FF4FC2EAFFEECF29
:1026B00002F002500201501905E14EC200F04FC273
:1026C00001F0120002014E4B4F2B4EC2E9FF4FC2E8
:1026D000EAFFEECF00F00052E6E1006A016A120064
:1026E0004EC2E9FF4FC2EAFFEECF02F002C050F245
:1026F0000250200A04E002015051090A04E10201DB
:102700004E4B4F2BEDD70201516B526B536B505117
:102710002D0A04E1532B4E4B4F2B06D00201505192
:102720002B0A02E14E4B4F2B4EC2E9FF4FC2EAFF8C
:10273000EECF00F000C050F200C079F2C8EC0DF00E
:1027400000521AE051C200F052C201F00A0E046EAB
:10275000000E056E12EC10F0300E0201505D026E9C
:10276000036A000E035A02500024516F03500120E7
:10277000526F4E4B4F2BD8D70201535308E05151A3
:102780000008006E52C201F0E86A0156120051C200
:1027900000F052C201F012004EC261F24FC262F26A
:1027A0000201636B646B46EC10F012004EC2E9FF4D
:1027B0004FC2EAFFEECF04F004C050F20450200AEA
:1027C00004E002015051090A04E102014E4B4F2B73
:1027D000EDD70201516B526B536B546B556B4EC26C
:1027E000E9FF4FC2EAFFEECF04F004502D0A04E1E6
:1027F000552B4E4B4F2B0CD04EC2E9FF4FC2EAFF78
:10280000EECF04F004502B0A03E102014E4B4F2B94
:1028100002014EC2E9FF4FC2EAFFEECF00F000C056
:1028200050F200C079F2C8EC0DF000522CE051C219
:1028300000F052C201F053C202F054C203F00A0E7B
:10284000046E000E056E000E066E000E076EA3EC01
:1028500006F0300E0201505D046E056A000E055A46
:1028600004500024516F05500120526F000E05BE28
:10287000FF0E0220536F000E05BEFF0E0320546FA3
:102880004E4B4F2BC5D7020155530DE0006A016A2C
:10289000026A036A5151005E5251015A5351025A61
:1028A0005451035A120051C200F052C201F053C2F7
:1028B00002F054C203F012001F6A60C020F060C032
:1028C0001EF01200816A040E956E9B0E946E936A40
:1028D000FF0E926E800ED56E850ECD6EC16A030E10
:1028E000B86EF19CF288F28AF1949D809F90400E20
:1028F000C76E210EC66EC68A9E969D96A398980EA8
:10290000B66E190EB76E606A676A666A686A696A47
:10291000070E656ED00E646EA3847F6A400E7E6ED5
:102920001F0E6F6E6E6A7A6AFF0E7B6E786A796A26
:102930007E8E12001A6A1B6A1C6A1D6A676A666AC2
:102940000001AF6BB06BB16BB26BAB6BAC6BAD6BD3
:10295000AE6B12000D0E0201796F76EC0DF02B0EAE
:1029600002014E6F000E4F6FA6C150F2A7C151F287
:10297000A8C152F2C4EC12F02B0E0201616F000EDE
:10298000626FF5EC0DF012004A0E0101A66F020114
:102990004E6B4F6BA70E506F010E516F010E526FB1
:1029A000EDEC12F00101A751531820E1010E0201D4
:1029B0004E6F000E4F6F610E506F000E516FA6C12B
:1029C00052F2EDEC12F0020E0101A62502014E6F4B
:1029D0004F6B000E4F23AB0E506F000E516FA6C110
:1029E00052F2EDEC12F0010E006E1200006A1200BD
:1029F000016A9EBA012A01C000F01200AECF60F059
:102A0000ABA202D0AB98AB8860C000F0120000010E
:102A100060510A0A03E060510D0A16E1F50EE16EFD
:102A2000000EE26E5450E126D8B0E22AE66A545015
:102A3000000806E2546A010E006E000E016E1200DC
:102A40000001006A016A1200F50EE16E000EE26EEE
:102A50005450E126D8B0E22A60C0E6FF542A006A4A
:102A6000016A1200F50E0101A96F000EAA6FA6C13E
:102A7000F6FFA7C1F7FFA8C1F8FF0900F5CF00F0E6
:102A8000005225E0A9C1E9FFAAC1EAFFEECF00F09C
:102A900000521DE0A9C1E9FFAAC1EAFFEECF02F092
:102AA000A6C1F6FFA7C1F7FFA8C1F8FF0900F5CF3F
:102AB00001F00250011802E0006A12000101A94B66
:102AC000AA2B010EA627000EA723A823D0D7010EFC
:102AD000006E1200680E0101A66F740EA76F3D0E06
:102AE000A86FA96B2C0EAA6F680EAB6F760EAC6F39
:102AF0003D0EAD6FAE6B2C0EAF6F680EB06F700EEB
:102B0000B16F3D0EB26FB36B2C0EB46F680EB56F24
:102B1000690EB66F3D0EB76FB86B2C0EB96F680EAD
:102B2000BA6F640EBB6F3D0EBC6FBD6B2C0EBE6FDB
:102B3000680EBF6F660EC06F670EC16F300EC26F3A
:102B40003D0EC36FC46B2C0EC56F680EC66F6F0E43
:102B5000C76F750EC86F740EC96F3D0ECA6FCB6B11
:102B60002C0ECC6F680ECD6F650ECE6F720ECF6FD0
:102B7000720ED06F3D0ED16FD26B2C0ED36F680EDC
:102B8000D46F650ED56F720ED66F720ED76F690E49
:102B9000D86F3D0ED96FDA6B2C0EDB6F680EDC6FD1
:102BA000650EDD6F720EDE6F720EDF6F640EE06F0A
:102BB0003D0EE16FE26B2C0EE36F680EE46F650E65
:102BC000E56F3D0EE66FE76B2C0EE86F6D0EE96F5B
:102BD000630EEA6F6D0EEB6F640EEC6F3D0EED6FE2
:102BE000EE6B2C0EEF6F6D0EF06F760EF16F3D0EEB
:102BF000F26FF36B2C0EF46F6D0EF56F700EF66FB7
:102C00003D0EF76FF86B2C0EF96F6D0EFA6F690EB3
:102C1000FB6F3D0EFC6FFD6B2C0EFE6F6D0EFF6F9C
:102C2000640E0201006F3D0E016F026B2C0E036FEC
:102C30006D0E046F660E056F670E066F3D0E076F13
:102C4000086B2C0E096F6D0E0A6F6F0E0B6F750EF1
:102C50000C6F740E0D6F3D0E0E6F0F6B2C0E106F00
:102C60006D0E116F650E126F720E136F720E146F70
:102C70003D0E156F166B2C0E176F6D0E186F650ECF
:102C8000196F720E1A6F720E1B6F690E1C6F3D0E5C
:102C90001D6F1E6B2C0E1F6F6D0E206F650E216F4A
:102CA000720E226F720E236F640E246F3D0E256F1D
:102CB000266B2C0E276F6D0E286F650E296F3D0E4B
:102CC0002A6F2B6B2C0E2C6F6D0E2D6F540E2E6FEA
:102CD000750E2F6F720E306F6E0E316F730E326F76
:102CE0003D0E336F346B2C0E356F6D0E366F670EE5
:102CF000376F650E386F3D0E396F3A6B2C0E3B6F98
:102D0000680E3C6F670E3D6F650E3E6F3D0E3F6F68
:102D1000406B2C0E416F640E426F690E436F720E52
:102D2000446F730E456F770E466F690E476F740ED2
:102D3000486F630E496F680E4A6F730E4B6F3D0EFE
:102D40004C6F4D6BA60E4E6F010E4F6F61C000F0C1
:102D500062C001F063C002F064C003F005EC03F050
:102D600000C050F201C051F202C052F203C053F24F
:102D70000AEC13F0AA0E02014E6F010E4F6F65C0F0
:102D800000F066C001F067C002F068C003F005EC17
:102D900003F000C050F201C051F202C052F203C071
:102DA00053F20AEC13F0AF0E02014E6F010E4F6F9B
:102DB00091C050F292C051F293C052F294C053F2BB
:102DC0000AEC13F0B40E02014E6F010E4F6F95C066
:102DD00050F296C051F297C052F298C053F20AECEA
:102DE00013F0B90E02014E6F010E4F6F99C050F2F1
:102DF0009AC051F29BC052F29CC053F20AEC13F0FD
:102E0000BE0E02014E6F010E4F6F9DC050F29EC06C
:102E100051F29FC052F2A0C053F20AEC13F0C50E5B
:102E200002014E6F010E4F6FA7C000F0A8C001F065
:102E3000E3EC02F000C050F201C051F202C052F2C5
:102E400003C053F20AEC13F0CC0E02014E6F010ED8
:102E50004F6F69C000F06AC001F06BC002F06CC037
:102E600003F005EC03F000C050F201C051F202C0C3
:102E700052F203C053F20AEC13F0D30E02014E6F6C
:102E8000010E4F6F7DC000F07EC001F0E3EC02F058
:102E900000C050F201C051F202C052F203C053F21E
:102EA0000AEC13F0DB0E02014E6F010E4F6F83C070
:102EB00000F084C001F085C002F086C003F005EC8C
:102EC00003F000C050F201C051F202C052F203C040
:102ED00053F20AEC13F0E30E02014E6F010E4F6F36
:102EE000A9C000F027EC13F000C050F201C051F26D
:102EF00002C052F203C053F20AEC13F0E80E0201D2
:102F00004E6F010E4F6FABC000F0ACC001F0ADC012
:102F100002F0AEC003F005EC03F000C050F201C0B7
:102F200051F202C052F203C053F20AEC13F0EF0E5A
:102F300002014E6F010E4F6FAFC000F0B0C001F044
:102F4000B1C002F0B2C003F005EC03F000C050F2D3
:102F500001C051F202C052F203C053F20AEC13F066
:102F6000F40E02014E6F010E4F6FDBC050F2DCC059
:102F700051F2DDC052F2DEC053F20AEC13F0F90E4A
:102F800002014E6F010E4F6FDFC050F2E0C051F2F0
:102F9000E1C052F2E2C053F20AEC13F0FE0E02015D
:102FA0004E6F010E4F6FE3C050F2E4C051F2E5C026
:102FB00052F2E6C053F20AEC13F0030E02014E6F18
:102FC000020E4F6FEBC050F2ECC051F2EDC052F266
:102FD000EEC053F20AEC13F0090E02014E6F020E1E
:102FE0004F6FF1C000F0F2C001F0E3EC02F000C05E
:102FF00050F201C051F202C052F203C053F20AEC87
:1030000013F0100E02014E6F020E4F6FB3C000F0AE
:10301000B4C001F0B5C002F0B6C003F005EC03F097
:1030200000C050F201C051F202C052F203C053F28C
:103030000AEC13F0170E02014E6F020E4F6FC7C05D
:1030400000F0C8C001F0E3EC02F000C050F201C093
:1030500051F202C052F203C053F20AEC13F01F0EF9
:1030600002014E6F020E4F6FCDC000F0CEC001F0D6
:10307000CFC002F0D0C003F005EC03F000C050F266
:1030800001C051F202C052F203C053F20AEC13F035
:10309000270E02014E6F020E4F6FF3C000F027ECB7
:1030A00013F000C050F201C051F202C052F203C04E
:1030B00053F20AEC13F02C0E02014E6F020E4F6F0A
:1030C0001AC000F01BC001F01CC002F01DC003F0CC
:1030D00005EC03F000C050F201C051F202C052F200
:1030E00003C053F20AEC13F0350E02014E6F020ECC
:1030F0004F6F2AC000F027EC13F000C050F201C05F
:1031000051F202C052F203C053F20AEC13F03B0E2C
:1031100002014E6F020E4F6F21C000F027EC13F03A
:1031200000C050F201C051F202C052F203C053F28B
:103130000AEC13F0410E02014E6F020E4F6F23C0D6
:1031400000F027EC13F000C050F201C051F202C0B1
:1031500052F203C053F20AEC13F012004A0E0001BF
:10316000606F02014E6B4F6B530E506F000E516F2C
:10317000010E526F37EC13F0010E02014E6F000E7C
:103180004F6F610E506F000E516F60C052F237ECFE
:1031900013F0020E0001602502014E6F4F6B000E0E
:1031A0004F23AB0E506F000E516F60C052F237ECE0
:1031B00013F01200A6C14EF2A7C14FF23D0E02015C
:1031C000506F53EC13F000C0A8F101C0A9F1010E3B
:1031D00000240101A86F000E0120A96FA8C14EF2C2
:1031E000A9C14FF270EC13F01200FF0E0001606FE6
:1031F00002014E6B4F6B600E506F000E516F010E4F
:10320000526F37EC13F01200A6C14EF2A7C14FF275
:103210003D0E0201506F53EC13F000C0A8F101C045
:10322000A9F1010E00240101A86F000E0120A96F71
:10323000A8C14EF2A9C14FF2CCEC13F01200A6C106
:103240004EF2A7C14FF23D0E0201506F53EC13F046
:1032500000C0A8F101C0A9F1010E00240101A86F6E
:10326000000E0120A96FA8C14EF2A9C14FF2D6EC01
:1032700013F01200FF0E556E000E546E000E246EF9
:10328000280E196E000E216E000E2A6E000E276E9B
:10329000000E226E000E236E000E566E000E576E4C
:1032A000000E586E000E596E000E256E000E266E32
:1032B000000E5A6E000E5B6E000E286E000E296E18
:1032C000000E156E000E166E000E176E000E186EB4
:1032D000000E1A6E000E1B6E000E1C6E000E1D6E90
:1032E000320E0001616F000E626F000E636F000E00
:1032F000646F000E656F000E666F000E676F000E44
:10330000686F000E696F000E6A6F000E6B6F000E23
:103310006C6F000E6D6F000E6E6F000E6F6F000E03
:10332000706F000E716F000E726FF40E736F010EEE
:10333000746F000E756F000E766F000E776F000EC3
:10334000786F000E796F000E7A6F000E7B6F000EA3
:103350007C6F000E7D6F000E7E6F000E7F6F000E83
:10336000806F000E816F000E826F000E836F000E63
:10337000846F000E856F000E866F000E876F000E43
:10338000886F000E896F000E8A6F000E8B6F000E23
:103390008C6F000E8D6F000E8E6F000E8F6F000E03
:1033A000906F000E916F000E926F600E936F800E03
:1033B000946FCD0E956FCC0E966F4C0E976F7E0E60
:1033C000986F000E996F000E9A6F000E9B6F000EA3
:1033D0009C6FCD0E9D6FCC0E9E6F4C0E9F6F7D0E21
:1033E000A06F000EA16F000EA26F000EA36F000E63
:1033F000A46FFE0EA56F000EA66F000EA76F000E45
:10340000A86F000EA96F000EAA6F000EAB6F000E22
:10341000AC6F000EAD6F000EAE6F000EAF6F000E02
:10342000B06F000EB16F000EB26F000EB36F000EE2
:10343000B46F000EB56F000EB66FC80EB76F000EFA
:10344000B86F800EB96FF00EBA6FFA0EBB6F020E36
:10345000BC6FD00EBD6F070EBE6F200EBF6F4E0E3D
:10346000C06F000EC16F000EC26F000EC36F000E62
:10347000C46F000EC56F000EC66F000EC76F000E42
:10348000C86F000EC96F000ECA6F000ECB6F000E22
:10349000CC6F000ECD6F000ECE6F000ECF6F000E02
:1034A000D06F000ED16F000ED26F000ED36F000EE2
:1034B000D46F000ED56F000ED66F000ED76F000EC2
:1034C000D86F000ED96F000EDA6F660EDB6F660ED6
:1034D000DC6F660EDD6F7E0EDE6F0A0EDF6FD70EBD
:1034E000E06F230EE16F7B0EE26FCD0EE36FCC0E2B
:1034F000E46F4C0EE56F7C0EE66F000EE76F000E7A
:10350000E86F000EE96F000EEA6F000EEB6F000E21
:10351000EC6F000EED6F800EEE6FFC0EEF6F030E82
:10352000F06F000EF16F000EF26F000EF36F000EE1
:10353000F46FFA0E5C6E3A0E5D6E000E5E6E0A0E51
:1035400001011D6F3B0E1E6F000E1F6F120E206FCC
:103550003B0E216F000E226F240E236F3B0E246F53
:10356000000E256FAC0E536E280E266F3B0E276F94
:10357000000E286F2A0E296F3B0E2A6F000E2B6F4C
:103580002C0E2C6F3B0E2D6F000E2E6F300E2F6FFA
:103590003B0E306F000E316F340E326F3B0E336FC7
:1035A000000E346F380E356F3B0E366F000E376FDE
:1035B0003C0E386F3B0E396F000E3A6F400E3B6F7A
:1035C0003B0E3C6F000E3D6F440E3E6F3B0E3F6F57
:1035D000000E406F480E416F3B0E426F000E436F6E
:1035E0004E0E446F3B0E456F000E466F520E476FF6
:1035F0003B0E486F000E496F560E4A6F3B0E4B6FE5
:10360000000E4C6F5A0E4D6F3B0E4E6F000E4F6FFB
:103610005E0E506F3B0E516F000E526F620E536F75
:103620003B0E546F000E556F660E566F3B0E576F74
:10363000000E586F6A0E596F3B0E5A6F000E5B6F8B
:103640006E0E5C6F3B0E5D6F000E5E6F740E5F6FF3
:103650003B0E606F000E616F780E626F3B0E636F02
:10366000000E646F1200AC8A900EAB6E948E949C28
:103670009EAA03D0AECF60F0FBD712003AEC19F04F
:10368000546A400EAF6EAC8433EC1BF0780E000130
:10369000606F5CEC14F062EC14F09AEC14F05CC017
:1036A000A6F15DC0A7F15EC0A8F1AAEC14F0C4ECCD
:1036B00014F0005208E120C1A6F121C1A7F122C1F6
:1036C000A8F1AAEC14F01DC1A6F11EC1A7F11FC1FB
:1036D000A8F1AAEC14F0D08EF28EF28C8190046ADC
:1036E00083BC042A041C006E000E00B0400E831838
:1036F000400B831AF8EC14F00052D8B4FCD1FEEC65
:1037000014F000C060F007EC15F000500110D8B4C0
:10371000F1D126C1A6F127C1A7F128C1A8F132EC49
:1037200015F0005203E06AEC15F0DCD129C1A6F1D6
:103730002AC1A7F12BC1A8F132EC15F0005203E029
:10374000AEEC18F0CFD12CC1A6F12DC1A7F12EC13E
:10375000A8F132EC15F0005203E0C4EC14F0C2D131
:1037600035C1A6F136C1A7F137C1A8F132EC15F089
:1037700000520AE0F50E0101A66F000EA76FDAEC09
:1037800018F000C02AF0AED132C1A6F133C1A7F1C2
:1037900034C1A8F132EC15F000520AE0F50E010137
:1037A000A66F000EA76FDAEC18F000C021F09AD1D6
:1037B0002FC1A6F130C1A7F131C1A8F132EC15F04B
:1037C000005203E0F5EC18F08DD141C1A6F142C1E1
:1037D000A7F143C1A8F132EC15F0005210E0F50E4C
:1037E0000101A66F000EA76F04EC19F000C09DF058
:1037F00001C09EF002C09FF003C0A0F073D14AC187
:10380000A6F14BC1A7F14CC1A8F132EC15F0005262
:1038100012E0F50E0101A66F000EA76FDAEC18F0AA
:1038200000C065F001C066F0000E01BEFF0E000191
:10383000676F686F57D138C1A6F139C1A7F13AC196
:10384000A8F132EC15F0005210E0F50E0101A66F60
:10385000000EA76F04EC19F000C091F001C092F0C7
:1038600002C093F003C094F03DD13BC1A6F13CC12E
:10387000A7F13DC1A8F132EC15F0005210E0F50EB1
:103880000101A66F000EA76F04EC19F000C095F0BF
:1038900001C096F002C097F003C098F023D13EC15A
:1038A000A6F13FC1A7F140C1A8F132EC15F00052DA
:1038B00010E0F50E0101A66F000EA76F04EC19F0E1
:1038C00000C099F001C09AF002C09BF003C09CF0C8
:1038D00009D144C1A6F145C1A7F146C1A8F132EC16
:1038E00015F000520CE0F50E0101A66F000EA76F57
:1038F000DAEC18F000C025F001C026F0F3D047C183
:10390000A6F148C1A7F149C1A8F132EC15F0005267
:1039100012E0F50E0101A66F000EA76FDAEC18F0A9
:1039200000C061F001C062F0000E01BEFF0E000198
:10393000636F646FD7D04DC1A6F14EC1A7F14FC1DF
:10394000A8F132EC15F0005210E0F50E0101A66F5F
:10395000000EA76F04EC19F000C0DBF001C0DCF032
:1039600002C0DDF003C0DEF0BDD050C1A6F151C1F0
:10397000A7F152C1A8F132EC15F0005210E0F50E9B
:103980000101A66F000EA76F04EC19F000C0DFF074
:1039900001C0E0F002C0E1F003C0E2F0A3D053C1E7
:1039A000A6F154C1A7F155C1A8F132EC15F00052AF
:1039B00010E0F50E0101A66F000EA76F04EC19F0E0
:1039C00000C0E3F001C0E4F002C0E5F003C0E6F09F
:1039D00089D059C1A6F15AC1A7F15BC1A8F132EC57
:1039E00015F0005210E0F50E0101A66F000EA76F52
:1039F00004EC19F000C0EBF001C0ECF002C0EDF0F7
:103A000003C0EEF06FD056C1A6F157C1A7F158C15F
:103A1000A8F132EC15F000520CE0F50E0101A66F92
:103A2000000EA76FDAEC18F000C05AF001C05BF08E
:103A300059D05CC1A6F15DC1A7F15EC1A8F132EC1D
:103A400015F0005210E0F50E0101A66F000EA76FF1
:103A50001FEC19F000C0ABF001C0ACF002C0ADF03B
:103A600003C0AEF03FD05FC1A6F160C1A7F161C154
:103A7000A8F132EC15F000520CE0F50E0101A66F32
:103A8000000EA76FDAEC18F000C028F001C029F092
:103A900029D062C1A6F163C1A7F164C1A8F132ECDB
:103AA00015F0005210E0F50E0101A66F000EA76F91
:103AB0001FEC19F000C0AFF001C0B0F002C0B1F0CF
:103AC00003C0B2F00FD023C1A6F124C1A7F125C1D4
:103AD000A8F1AAEC14F0F50E0201616F000E626FFE
:103AE000F5EC0DF01DC1A6F11EC1A7F11FC1A8F193
:103AF000AAEC14F0FFD5F3D5FFD74578747275643E
:103B000065722076302E310000FF0A436D643A3E24
:103B100000FF0A4E6F20454550524F4D20446174BE
:103B2000612E00FF0A3F3A0073007600726400FFC6
:103B3000646500FF686765006D676500687000FF79
:103B4000686900FF686400FF6866673000FF687995
:103B500000FF687400FF686600FF6D7000FF6D690C
:103B600000FF6D6400FF6D7900FF6D6667006D6397
:103B70006D6400FF6D7370006D6600FFFFFFFFFF57
:020000040030CA
:0E000000FFF6FDFEFFFBFFFFFFFFFFFFFFFF10
:00000001FF
