:10000000D2EF1AF0FFFFFFFFC4EF00F000010AAECD
:10001000029E000E1200FFFF0EC0F8F10DC0F7F1B6
:100020000CC0F6F10BC0F5F10AC0F4F109C0F3F110
:1000300008C0F2F107C0F1F106C0F0F105C0EFF120
:1000400004C0EEF103C0EDF102C0ECF101C0EBF130
:1000500000C0EAF1E8CF32F1D8CF33F1E0CF34F18C
:10006000E9CF2EF1EACF2FF1E1CF30F1E2CF31F13C
:10007000F2A418D007EC08F02CC001F02C2A015093
:100080003C0A0AE115EC08F02C6A610E0101396F97
:10009000000E3A6F6EEC08F001015D0ED76E3D0E5A
:1000A000D66EF29401019EA042D02AEC0DF0F3919D
:1000B0002D50010A15E1800E006E800E6819005C5B
:1000C00008E16751000805E16651000802E1655149
:1000D000C80804E20001F381829A02D00001828AFA
:1000E000800E000A006E800E0001B619005C08E167
:1000F000B551000805E1B451270802E1B3511008D9
:1001000004E22D6A0001F391828AAB0E0101396F7E
:10011000000E3A6F6EEC08F0F1C039F1F2C03AF11E
:10012000D8EC0EF0E00ECF6E9F0ECE6E9E9032C1D8
:10013000E8FF33C1D8FF34C1E0FF2EC1E9FF2FC172
:10014000EAFF30C1E1FF31C1E2FFF8C10EF0F7C1B3
:100150000DF0F6C10CF0F5C10BF0F4C10AF0F3C1DB
:1001600009F0F2C108F0F1C107F0F0C106F0EFC1EB
:1001700005F0EEC104F0EDC103F0ECC102F0EBC1FB
:1001800001F0EAC100F0100003C0E9F102C0E8F19B
:1001900001C0E7F100C0E6F1E9CF2EF1EACF2FF17F
:1001A000E1CF30F1E2CF31F1F2A218D082A007D036
:1001B00019501526000E1622172218220ED019C02B
:1001C00000F0000E016E026E036E0050155E0150CD
:1001D000165A0250175A0350185AF292A4A411D07A
:1001E000B68AB6AA07D0010E1A26000E1B221C22C0
:1001F0001D2206D0010E1A5E000E1B5A1C5A1D5AF3
:10020000A4942EC1E9FF2FC1EAFF30C1E1FF31C143
:10021000E2FFE9C103F0E8C102F0E7C101F0E6C185
:1002200000F0110000010B840BAE1EEF01F0010E77
:10023000036E026A016A006A0A360232FF0E120079
:1002400000010B820BAE2BEF01F00368026801681E
:1002500000680A360232FF0E12000001026A016ACB
:10026000006A086A036A000E120000010CB078EF01
:1002700001F00CA220EF02F00E6A000E02648FEF74
:1002800001F0F00E0214D8A45AEF01F0023A01383E
:100290000F0B02260138F00B016E00380F0B012600
:1002A0000038F00B006E08380F0B00260838F00BF2
:1002B000086E0E84D89002BE73EF01F00836003647
:1002C000013602360E2A02BE73EF01F00836003600
:1002D000013602360E2A02BE73EF01F008360036F0
:1002E000013602360E2A0E50036414EF02F0035E4C
:1002F0000BBC08AE1AEF02F0D880800E0864003004
:10030000000E002201220222D8A01AEF02F00232CF
:1003100001320032034A20EF02F01AEF02F001C06E
:1003200002F000C001F008C000F0086A000E0E865E
:100330000264C6EF01F0F00E0214D8A4AEEF01F093
:10034000023A01380F0B02260138F00B016E00381B
:100350000F0B01260038F00B006E0E84D89002BE01
:1003600073EF01F00036013602360E2A02BE73EF3B
:1003700001F00036013602360E2A02BE73EF01F09C
:100380000036013602360E2A73EF01F001C002F08A
:1003900000C001F0006A000E0E960E880264F3EFB2
:1003A00001F0F00E0214D8A4DEEF01F0023A013899
:1003B0000F0B02260138F00B016E0E84D89002BE9E
:1003C00073EF01F0013602360E2A02BE73EF01F020
:1003D000013602360E2A02BE73EF01F001360236F4
:1003E0000E2A73EF01F001C002F0016A000E0E86C2
:1003F000026426EF02F0F00E0214D8A402EF02F01D
:10040000023A0E84D89002BE73EF01F002360E2A33
:1004100002BE73EF01F002360E2A02BE73EF01F046
:1004200002360E2A73EF01F0010E0C6E12EC01F091
:100430002AEF02F0020E0C6E06EC00F02AEF02F03A
:10044000040E0C6E20EC01F02AEF02F0080E0C6E88
:100450002DEC01F0120000010B800BAE38EF02F022
:10046000026A0AAEFF0E026E016E006E0A3602329A
:10047000FF0E12000001025006180E6E086A096A8B
:100480000B6A035007642EEF03F006500A6E068EC7
:10049000028E03500B6E0750036E000E0B647EEF4E
:1004A00002F00B50075ED8B41FEF03F0070E07648D
:1004B000EDEF02F0075E00C008F001C000F002C0DE
:1004C00001F0026A074E1FEF03F00764C2EF02F06B
:1004D000075E00C008F001C000F0016A074E1FEF80
:1004E00003F00764A0EF02F0075E00C008F0006AA6
:1004F000074E1FEF03F0076487EF02F00AC002F017
:1005000005C001F004C000F0086A4BEF04F0030ED0
:10051000076492EF02F0075E08380F0B086E074E73
:100520001FEF03F0D8900832074E1FEF03F0D8906A
:100530000832074E1FEF03F0D89008321FEF03F088
:10054000030E0764B1EF02F0075E08380F0B086E68
:100550000038F00B082600380F0B006E074E1FEF17
:1005600003F0D89000320832074E1FEF03F0D89006
:1005700000320832074E1FEF03F0D89000320832E5
:100580001FEF03F0030E0764D9EF02F0075E08388F
:100590000F0B086E0038F00B082600380F0B006EAA
:1005A0000138F00B002601380F0B016E074E1FEFCC
:1005B00003F0D890013200320832074E1FEF03F0EB
:1005C000D890013200320832074E1FEF03F0D89066
:1005D0000132003208321FEF03F0030E07640AEF06
:1005E00003F0075E08380F0B086E0038F00B082682
:1005F00000380F0B006E0138F00B002601380F0B8E
:10060000016E0238F00B012602380F0B026E074E06
:100610001FEF03F0D8900232013200320832074E49
:100620001FEF03F0D8900232013200320832074E39
:100630001FEF03F0D8900232013200320832096A0B
:10064000000E0EAE13EF04F0081E001E011E021E67
:10065000082A00220122022213EF04F00750D8A436
:1006600034EF03F04BEF04F0096A02C00AF0028E87
:10067000068E0750035C076ED8B406EF04F0070E31
:100680000764D4EF03F0075E0450096E0550046E52
:100690000650056E066A074E06EF04F0070E076463
:1006A000A9EF03F0075E0450096E0550046E056A59
:1006B000074E06EF04F0070E076487EF03F0075EAE
:1006C0000450096E046A074E06EF04F0070E076433
:1006D0006EEF03F00AC002F04BEF04F0030E076464
:1006E00079EF03F0075E09380F0B096E074E06EF2E
:1006F00004F0D8900932074E06EF04F0D890093282
:10070000074E06EF04F0D890093206EF04F0030E0E
:10071000076498EF03F0075E09380F0B096E043881
:10072000F00B092604380F0B046E074E06EF04F099
:10073000D89004320932074E06EF04F0D890043204
:100740000932074E06EF04F0D8900432093206EF62
:1007500004F0030E0764C0EF03F0075E09380F0BC7
:10076000096E0438F00B092604380F0B046E0538A7
:10077000F00B042605380F0B056E074E06EF04F04C
:10078000D890053204320932074E06EF04F0D890B3
:10079000053204320932074E06EF04F0D8900532D4
:1007A0000432093206EF04F0030E0764F1EF03F0A0
:1007B000075E09380F0B096E0438F00B0926043860
:1007C0000F0B046E0538F00B042605380F0B056E71
:1007D0000638F00B052606380F0B066E074E06EF9F
:1007E00004F0D8900632053204320932074E06EF83
:1007F00004F0D8900632053204320932074E06EF73
:1008000004F0D8900632053204320932086A000E2C
:100810000EAE13EF04F0091E041E051E061E092A63
:100820000422052206220950082604500022055001
:100830000122065002220EBE2AEF04F0D8A039EFA2
:1008400004F00232013200320832033E39EF04F084
:1008500045EF04F0D8B03FEF04F0000E081E001E74
:10086000011E021E082A0022012202220A7E3FEFF8
:1008700004F0010E0C6E35EC01F04DEF04F0020EA9
:100880000C6E35EC01F04DEF04F0040E0C6E20EC14
:1008900001F04DEF04F0000E0C6E120000010C6A26
:1008A0000E6A0250D8A468EF04F001C002F000C044
:1008B00001F0006A0E860250D8A468EF04F001C06F
:1008C00002F0016A0E960E880250D8B47AEF04F056
:1008D0000E50035ED8A4D8A080EF04F0D89002BEDA
:1008E00086EF04F0003601360236032E6FEF04F077
:1008F00080EF04F0010E0C6E2DEC01F08AEF04F095
:10090000020E0C6E12EC01F08AEF04F0040E0C6E75
:1009100006EC00F0120000010A6A0350D8A40A8015
:100920000750D8A40A820A50D8B4EFEF04F0030AA3
:10093000D8B4A8EF04F00AB0A3EF04F006AEEDEFD0
:1009400004F0EBEF04F002AEEBEF04F0EDEF04F097
:100950000250800B0A6E029E0650800B069E0A18FB
:10096000D8B4B9EF04F00A50D8B4EBEF04F0EDEFCF
:1009700004F00750035CD8B4C3EF04F0D8A0DFEF55
:1009800004F0E5EF04F00650025CD8B4CDEF04F0BB
:10099000D8A0DFEF04F0E5EF04F00550015CD8B417
:1009A000D7EF04F0D8A0DFEF04F0E5EF04F0045037
:1009B000005CD8B4EFEF04F0D8B0E5EF04F00A52D1
:1009C000D8B4EDEF04F0EBEF04F00A52D8B4EBEF3B
:1009D00004F0EDEF04F0D8801200D8901200D88017
:1009E000D8841200120000010B6A0C6A086A0350D6
:1009F000D8B478EF05F002C00AF0028E9E0E035EB6
:100A000003AE68EF05F0036C080E035CD8A035EF69
:100A100005F0036E083600C008F001C000F002C007
:100A200001F0026A080E035CD8A035EF05F0036EF2
:100A3000083600C008F001C000F0016A080E035C2F
:100A4000D8A035EF05F0036E083600C008F0006A44
:100A5000080E035CD8A035EF05F0036E0836086A6F
:100A60000350D8A4D89041EF05F00350D8B441EF1B
:100A700005F0D8900232013200320832032E39EFED
:100A800005F00BBC08A052EF05F0D8A052EF05F01E
:100A9000082AD8B4002AD8B4012AD8B4022A02BE3F
:100AA0007CEF05F00AAE78EF05F0021E011E001E75
:100AB000081E082AD8B4002AD8B4012AD8B4022AB9
:100AC00078EF05F0026A016A006A086A78EF05F0BB
:100AD0000B800BAE83EF05F0026A0AAE83EF05F0E0
:100AE000026E016E006E086E0A36023283EF05F068
:100AF0000C6A000E84EF05F0010E0C6E000E2BEC5C
:100B000002F084EF05F0FF0E0250036E0150026EFA
:100B10000050016E0850006E120000010050086E77
:100B20000150006E0250016E0350026E036A0B6AA0
:100B30000C6A9E0E036E0A6A02AEABEF05F0081E49
:100B4000001E011E021E082AD8B4002AD8B4012AA9
:100B5000D8B4022A0A8E020E0C6E35EC01F0120097
:100B60000001067E3AEC02F012000001220E0C6E2B
:100B7000086A096A0A6A0B6A0C06D8B4E2EF05F043
:100B8000D8900B320A320932083203320232013273
:100B90000032D8A0BCEF05F00C06D8B4DAEF05F0AF
:100BA000045008260550092206500A2207500B223D
:100BB000C1EF05F0045008260550092206500A220C
:100BC00007500B221200000100C008F00150006E17
:100BD000016A026A036A0B6A0C6A016A026A036AA2
:100BE000960E036E0A6A00AEFCEF05F0081E001EAA
:100BF000082AD8B4002A0A8E00C001F008C000F00C
:100C0000086A026A4EEC04F012000001086A096AE0
:100C1000000E076203648BEF06F0025006180A6E9E
:100C2000075003267E0ED8A01CEF06F0035ED8B056
:100C300090EF06F020EF06F0035ED8A095EF06F0E7
:100C4000028E068E02C00EF001C00BF000C00DF047
:100C500000500402F4CF0CF001500502F4CF00F074
:100C6000F3CF08F00402F3500C26F4500822000ED3
:100C700000220D500502F3500C26F4500822000EFD
:100C8000002202500402F3500826F45000220250C1
:100C90000502016A000E0122F3500026F4500122E1
:100CA0000D500602F3500826F4500022026A000E8E
:100CB000012202220B500602F3500026F4500122BA
:100CC000000E02220E500602F3500126F4500222BA
:100CD00002BE73EF06F00836003601360236030610
:100CE000D8B495EF06F086EF06F0D880800E086441
:100CF0000030000E002201220222D8A086EF06F06A
:100D0000023201320032034A90EF06F00AAE029E30
:100D1000000E98EF06F0010E2DEC01F098EF06F0B2
:100D2000020E20EC01F098EF06F0040E12EC01F038
:100D3000120000010B6A0350D8B4E0EF06F0025035
:100D40000A6E028E8E0E035E03AEE4EF06F0036CB5
:100D5000080E035CD8A0BFEF06F0036E013602C098
:100D600001F0026A080E035CD8A0BFEF06F0036E24
:100D70000136016A0350D8A4D890C9EF06F0035099
:100D8000D8B4C9EF06F0D89002320132032EC3EF77
:100D900006F00BBC01A0D6EF06F0D8A0D6EF06F007
:100DA000012AD8B4022A02BEF3EF06F00AAEF9EF28
:100DB00006F0021E011E012AD8B4022AF9EF06F03D
:100DC000026A016AF9EF06F00B800BAEFDEF06F048
:100DD000026A0AAEFDEF06F0FF0E026E016E0A36E1
:100DE0000232FDEF06F0010E0C6E2BEC02F0FFEF6D
:100DF00006F0000E0C6EFFEF06F0FF0E0C6E0150B9
:100E0000006E0250016E1200046A056A066A076AE3
:100E10006FC100F070C101F071C102F072C103F046
:100E20008BEC04F0000ED8B0010E006E005218E0FA
:100E3000000E046E000E056E000E066E7F0E076E2D
:100E40006FC100F070C101F071C102F072C103F016
:100E50008BEC04F0010ED8B0000E006E00522FE1B2
:100E600000016FC104F070C105F071C106F072C1DC
:100E700007F0000E006E000E016E800E026E7F0EF7
:100E8000036E8BEC04F0010ED8B0000E006E005221
:100E900014E06FC104F070C105F071C106F072C1B9
:100EA00007F0006A016A026A036A8BEC04F0000E24
:100EB000D8B0010E006E005202E1000112D0000114
:100EC00073C1E1FF74C1E2FFE66AE66AE66AE66AB8
:100ED0006FC100F070C101F071C102F072C103F086
:100EE0001200000172C100F0016A026A036AFF0E7B
:100EF00000140A6E000E0B6E000E0B167F0E006EB5
:100F0000000E016E026E036E00500A5C086E015006
:100F10000B58096E000E006E0950005C02E108508B
:100F20001808000111E273C1E1FF74C1E2FF6FC153
:100F3000E6FF70C1E6FF71C1E6FF72C1E6FF006A1D
:100F4000016A026A036A12006FC100F070C101F009
:100F500071C102F072C103F0F3EC04F08DEC05F006
:100F600073C1E1FF74C1E2FF00C0E6FF01C0E6FF0C
:100F700002C0E6FF03C0E6FF73C1E9FF74C1EAFFE8
:100F8000EECF04F0EECF05F0EECF06F0EECF07F097
:100F90006FC100F070C101F071C102F072C103F0C5
:100FA000B0EC05F0120000010D6A03AEE3EF07F0AC
:100FB000001E011E021E031E000E002A0122022234
:100FC0000322810E0D2607AEF0EF07F0041E051E6A
:100FD000061E071E000E042A0522062207220D2ADD
:100FE000B5EC05F00DA006EF08F0001E011E021E74
:100FF000031E081E091E0A1E0B1E000E002A0122D7
:1010000002220322082209220A220B2212001E06B3
:101010001F501E5C03E2838A0FEF08F0839A1E5074
:10102000000A02E120C01EF012000101396B3A6B88
:101030008390FF0EC96E0101010EC714016E0150AD
:10104000000AF9E0C9CF39F1FF0EC96E0101010EA6
:10105000C714016E0150000AF9E0C9CF3AF183804C
:101060003AA50AD0D00E0001656F070E666F000E1C
:10107000676F686FA96B31D000012150010A02E14E
:10108000A98102D00001A991050E006E39C165F059
:10109000000E666F005005E0653765916637FF0FFB
:1010A000FAD700013AC100F00032009E0032009EE3
:1010B0000032009E000E676F686F00506527D8B041
:1010C000662B000E676F686F66336533669F663305
:1010D0006533669F000E676F686F1200480E01014E
:1010E0003925E96E000E3A21EA6EEECF5FF10E0E61
:1010F0003925E96E000E3A21EA6EEECF43F1EECFCC
:1011000044F1EECF45F1EECF46F10C0E3925E96EF4
:10111000000E3A21EA6EEECF60F1EECF61F1120ED1
:101120003925E96E000E3A21EA6EEECF47F1EECF97
:1011300048F1000E48BFFF0E496F4A6F000E48BFCE
:10114000FF0E496F4A6F140E3925E96E000E3A21E1
:10115000EA6EEECF4BF1EECF4CF1EECF4DF1EECF8C
:101160004EF1440E3925E96E000E3A21EA6EEECFBB
:1011700062F1EECF63F1180E3925E96E000E3A21C7
:10118000EA6EEECF57F1EECF58F1EECF59F1EECF38
:101190005AF139C1E9FF3AC1EAFFEECF08F0EECFCC
:1011A00009F0EECF0AF0EECF0BF0040E3925E96E10
:1011B000000E3A21EA6EEECF04F0EECF05F0EECF4E
:1011C00006F0EECF07F008C000F009C001F00AC039
:1011D00002F00BC003F00450005E0550015A0650A7
:1011E000025A0750035A00C03BF101C03CF102C053
:1011F0003DF103C03EF1080E3925E16E000E3A21A3
:10120000E26E00C0E6FF01C0E6FF02C0E6FF03C0D9
:10121000E6FF000E006E461908E10050451905E191
:101220000050441902E14351000A50E0800E461973
:10123000006E800E3E19005C08E13D51455D05E100
:101240003C51445D02E13B51435D10E243C13BF13F
:1012500044C13CF145C13DF146C13EF1480E39253E
:10126000E16E000E3A21E26EE66A30D00101046AB6
:10127000056A066A076A4351045E4451055A45519E
:10128000065A4651075A800E3E19006E800E071806
:10129000005C08E106503D5D05E105503C5D02E162
:1012A00004503B5D13E23B6B3C6B3D6B3E6B43512B
:1012B0003B5F44513C5B45513D5B46513E5B480EB4
:1012C0003925E16E000E3A21E26EE66A0101010164
:1012D000800E61BF7F0E006E800E3E19005C0CE137
:1012E000000E61BFFF0E006E3D51005C05E13C51F8
:1012F000615D02E13B51605D12E260C100F061C1DD
:1013000001F0000E61BFFF0E026E036E00503B5FE6
:1013100001503C5B02503D5B03503E5B34D0010109
:1013200060510008046E61C105F0E86A0556800E40
:101330003E19006E800E05BE7F0E005C0CE1000EB3
:1013400005BEFF0E3D5D07E1000E05BEFF0E3C5DD4
:1013500002E104503B5D0AE260513B2761513C23AE
:10136000000E61BFFF0E3D233E230DD001013B6BFC
:101370003C6B3D6B3E6B1C0E3925E16E000E3A2135
:10138000E26EE66AE66A1C0E3925E96E000E3A2125
:10139000EA6EEECF4FF1EECF50F1000E50BFFF0ED0
:1013A000516F526F000E50BFFF0E516F526F5F5161
:1013B000000AD8B466D0490E3925E96E000E3A21EC
:1013C000EA6EEECF04F00450000A08E13B514F27CB
:1013D0003C5150233D5151233E515223000E006E8B
:1013E0004A1908E10050491905E10050481902E185
:1013F0004751000A42E0800E4A19006E800E5219D1
:10140000005C08E15151495D05E15051485D02E140
:101410004F51475D09E247C14FF148C150F149C101
:1014200051F14AC152F129D00101046A056A066AE4
:10143000076A4751045E4851055A4951065A4A51B4
:10144000075A800E5219006E800E0718005C08E1E2
:101450000650515D05E10550505D02E104504F5DBD
:101460000CE24F6B506B516B526B47514F5F4851C1
:10147000505B4951515B4A51525B0101010101012D
:1014800004D04F6B506B516B526B01011C0E392510
:10149000E16E000E3A21E26E4FC1E6FF50C1E6FF59
:1014A0001E0E3925046E000E3A21056E04C0E9FFB8
:1014B00005C0EAFFEECF00F0EECF01F0EECF02F074
:1014C000EECF03F03BC153F13CC154F13DC155F1A6
:1014D0003EC156F10050535F0150545B0250555BC2
:1014E0000350565B04C0E1FF05C0E2FF3BC1E6FFCD
:1014F0003CC1E6FF3DC1E6FF3EC1E6FF000E006EC7
:101500004E1908E100504D1905E100504C1902E157
:101510004B51000A42E0800E4E19006E800E5619A3
:10152000005C08E155514D5D05E154514C5D02E10F
:1015300053514B5D09E24BC153F14CC154F14DC1C4
:1015400055F14EC156F129D00101046A056A066AB7
:10155000076A4B51045E4C51055A4D51065A4E5183
:10156000075A800E5619006E800E0718005C08E1BD
:101570000650555D05E10550545D02E10450535D90
:101580000CE2536B546B556B566B4B51535F4C5184
:10159000545B4D51555B4E51565B010101010101F8
:1015A000220E3925E16E000E3A21E26E53C1E6FFAC
:1015B00054C1E6FF55C1E6FF56C1E6FF39C1E9FF58
:1015C0003AC1EAFFEECF5BF1EECF5CF1EECF5DF119
:1015D000EECF5EF1260E3925046E000E3A21056E1F
:1015E00004C0E9FF05C0EAFFEECF00F0EECF01F046
:1015F000EECF02F0EECF03F000505B5F01505C5B7A
:1016000002505D5B03505E5B39C1E9FF3AC1EAFFFE
:10161000EECF00F0EECF01F0EECF02F0EECF03F010
:1016200004C0E1FF05C0E2FF00C0E6FF01C0E6FF25
:1016300002C0E6FF03C0E6FF000E006E5A1908E183
:101640000050591905E10050581902E15751000A9C
:1016500042E0800E5A19006E800E5E19005C08E1AF
:101660005D51595D05E15C51585D02E15B51575D8B
:1016700009E257C15BF158C15CF159C15DF15AC132
:101680005EF129D00101046A056A066A076A5751AA
:10169000045E5851055A5951065A5A51075A800E3C
:1016A0005E19006E800E0718005C08E106505D5D53
:1016B00005E105505C5D02E104505B5D0CE25B6B93
:1016C0005C6B5D6B5E6B57515B5F58515C5B595156
:1016D0005D5B5A515E5B0101010101012A0E392552
:1016E000E16E000E3A21E26E5BC1E6FF5CC1E6FFEF
:1016F0005DC1E6FF5EC1E6FF646B656B5F51000A8A
:10170000D8B490D12E0E3925E96E000E3A21EA6E3A
:10171000EECF00F0EECF01F0E3EC05F000C06BF18E
:1017200001C06CF102C06DF103C06EF1300E010119
:101730003925E96E000E3A21EA6EEECF67F1EECF61
:1017400068F1EECF69F1EECF6AF13BC100F03CC128
:1017500001F03DC102F03EC103F08DEC05F067C120
:1017600004F068C105F069C106F06AC107F005EC34
:1017700006F06BC104F06CC105F06DC106F06EC1DE
:1017800007F03AEC02F000C067F101C068F102C056
:1017900069F103C06AF11C0E01013925E96E000EE2
:1017A0003A21EA6EEECF00F0EECF01F0E3EC05F067
:1017B000340E01013925E96E000E3A21EA6EEECFB2
:1017C00004F0EECF05F0EECF06F0EECF07F005EC1B
:1017D00006F067C104F068C105F069C106F06AC18E
:1017E00007F03AEC02F000C06BF101C06CF102C0EE
:1017F0006DF103C06EF1380E01013925E96E000E5E
:101800003A21EA6EEECF67F1EECF68F1EECF69F1E3
:10181000EECF6AF1220E3925E96E000E3A21EA6E0A
:10182000EECF00F0EECF01F0EECF02F0EECF03F0FE
:101830008DEC05F067C104F068C105F069C106F0E0
:101840006AC107F005EC06F06BC104F06CC105F04D
:101850006DC106F06EC107F03AEC02F000C067F10E
:1018600001C068F102C069F103C06AF167C13FF1CC
:1018700068C140F169C141F16AC142F139C1E9FF72
:101880003AC1EAFFEECF00F0EECF01F0EECF02F06A
:10189000EECF03F08DEC05F03C0E01013925E96E29
:1018A000000E3A21EA6EEECF04F0EECF05F0EECF57
:1018B00006F0EECF07F005EC06F067C104F068C152
:1018C00005F069C106F06AC107F03AEC02F000C009
:1018D00067F101C068F102C069F103C06AF167C134
:1018E0003FF168C140F169C141F16AC142F12A0E7C
:1018F00001013925E96E000E3A21EA6EEECF00F0C3
:10190000EECF01F0EECF02F0EECF03F08DEC05F05C
:10191000400E01013925E96E000E3A21EA6EEECF44
:1019200004F0EECF05F0EECF06F0EECF07F005ECB9
:1019300006F067C104F068C105F069C106F06AC12C
:1019400007F03AEC02F000C067F101C068F102C094
:1019500069F103C06AF167C13FF168C140F169C133
:1019600041F16AC142F10101666B62C100F063C1DD
:1019700001F0E3EC05F067C104F068C105F069C14E
:1019800006F06AC107F08BEC04F0010ED8B0000E2F
:10199000006E005208E062C164F163C165F1010E9E
:1019A0000101666F3CD0010162510008006E63C105
:1019B00001F0E86A0156E3EC05F000C004F001C054
:1019C00005F002C006F003C007F03FC100F040C1BF
:1019D00001F041C102F042C103F08BEC04F0010EB2
:1019E000D8B0000E006E00520BE0010162510008F9
:1019F000646F63C165F1E86A6557010E666F0FD0C9
:101A000001013FC100F040C101F041C102F042C1FB
:101A100003F099EC06F000C064F101C065F100012B
:101A2000000104D00101646B656B666B460E010119
:101A30003925E16E000E3A21E26E64C1E6FF65C110
:101A4000E6FF490E3925E16E000E3A21E26E66C1CD
:101A5000E6FF12000101396B3A6B3B6B3C6B3D6B4F
:101A60003E6B3F6B406B416B426B436B446B456B12
:101A7000466B476B486B800E770A006E800E000144
:101A8000AE19005C08E1AD51350805E1AC51940890
:101A900002E1AB51000811E3800E770A006E800E60
:101AA0000001B219005C08E1B151350805E1B051FF
:101AB000940802E1AF51000811E2000E0101396FF4
:101AC0007C0E3A6F280E3B6FE80E3C6FC00E3D6FE8
:101AD000F20E3E6FFC0E3F6FFF0E406F800E000156
:101AE000AE19006E800E880A005C08E1CA0EAD5D7A
:101AF00005E16C0EAC5D02E1000EAB5D11E3800E02
:101B00000001B219006E800E880A005C08E1CA0E5E
:101B1000B15D05E16C0EB05D02E1000EAF5D11E25A
:101B2000000E0101396F840E3A6FD70E3B6F170E0E
:101B30003C6F400E3D6F0D0E3E6F030E3F6F000E6B
:101B4000406F000E006E01013C1908E100503B1986
:101B500005E100503A1902E13951000A29E001017A
:101B600039510001AB2701013A510001AC230101B9
:101B70003B510001AD2301013C510001AE230101A5
:101B800039510001AF2701013A510001B023010191
:101B90003B510001B12301013C510001B22301017D
:101BA0003D511A263E511B223F511C2240511D22FD
:101BB0002250010AD8A4B1D015C000F016C001F01F
:101BC00017C002F018C003F08DEC05F000C049F119
:101BD00001C04AF102C04BF103C04CF123C004F034
:101BE00024C005F025C006F026C007F049C100F06A
:101BF0004AC101F04BC102F04CC103F0B0EC05F05A
:101C0000CD0E046ECC0E056E0C0E066E7F0E076EAA
:101C100005EC06F000C041F101C042F102C043F101
:101C200003C044F149C104F04AC105F04BC106F0BC
:101C30004CC107F0B0EC05F027C004F028C005F057
:101C400029C006F02AC007F03AEC02F000C06FF19C
:101C500001C070F102C071F103C072F1450E0101C3
:101C6000736F010E746F04EC07F000C027F001C021
:101C700028F002C029F003C02AF041C100F042C19F
:101C800001F043C102F044C103F0EE0E046EBF0E3A
:101C9000056E040E066E710E076E05EC06F000C0B0
:101CA00049F101C04AF102C04BF103C04CF123C01D
:101CB00000F024C001F025C002F026C003F0CB0ED6
:101CC000046EE00E056E7F0E066E7E0E076E05EC4E
:101CD00006F049C104F04AC105F04BC106F04CC101
:101CE00007F03AEC02F000C023F001C024F002C07B
:101CF00025F003C026F045C100F046C101F047C100
:101D000002F048C103F0F3EC04F000501526015036
:101D10001622025017220350182200011550AB273B
:101D20001650AC231750AD231850AE23156A166A0F
:101D3000176A186A1AC000F01BC001F01CC002F03C
:101D40001DC003F0D00E046E070E056E000E066E69
:101D5000076ED3EC07F0080E086E67CF04F0000E94
:101D6000056E0850000105E0043604900536FF0FAB
:101D7000F9D70001000E066E076E04500024AF6F05
:101D800005500120B06F06500220B16F07500320AC
:101D9000B26F66CF00F0000E016E026E036E00504F
:101DA000AF270150B0230250B1230350B2231200D9
:101DB00001013B6B3C6B800E3A19006E800E005C9B
:101DC00002E1000E395D11E2016A81B4012A01507D
:101DD000010AD8B42B2A01018194395100083B6FC4
:101DE0003AC13CF1E86A3C570ED00101016A81B466
:101DF000012A0150000AD8B42B2A0101818439C17B
:101E00003BF13AC13CF13CC178FF3BC179FF120084
:101E1000E0C1E4F1E1C1E5F1E4C102F0E5C103F0A4
:101E20000101E44BE52BE2C1E9FFE3C1EAFFE24B2C
:101E3000E32BEECF00F002C0E1FF03C0E2FF00C0E1
:101E4000E6FF02C0E9FF03C0EAFFEECF00F0005258
:101E5000E3E1E0C100F0E1C101F012000001086B14
:101E6000080E0C6E003408360450085ED8B03BEF04
:101E70000FF00826D89000360C2E32EF0FF012002B
:101E8000016AACB2012A0150000A02E10000F8D751
:101E9000E0C1ADFF12000101E051200A08E0E0516D
:101EA0000D0803E3090EE05D02E2006A02D0010EB4
:101EB000006E12000101E051390807E3300EE05DC9
:101EC00004E3010E006E66EF0FF0006A12000001DD
:101ED00003500718D8A47CEF0FF002500618D8A4BE
:101EE0007CEF0FF001500518D8A47CEF0FF00050E4
:101EF0000418D8B4D8841200D89412001200A69CFA
:101F000060C0A9FFA69EA680A8CF00F012004E0ECA
:101F10000101CE6F610ECF6F4E0ED06FD16B300EC0
:101F2000D26FD36B490ED46F4E0ED56F460ED66F5F
:101F3000D76BD86BDB6BC8C1DCF1C9C1DDF1CAC19D
:101F4000DEF1CBC1DFF1DF51FF0A08E1DE51FF0A0C
:101F500005E1DD51FF0A02E1DC51FF0A0EE1CCC1CF
:101F6000E0F1CDC1E1F1CE0E0101E26F010EE36FB0
:101F700008EC0FF0030E006E1200010E0101D96F84
:101F8000DEAF0AD0DE7FD92BCCC1E1FFCDC1E2FFAD
:101F90002D0EE66ECC4BCD2B000E006E0101DF192D
:101FA00008E10050DE1905E10050DD1902E1DC51C5
:101FB000000A0DE1CCC1E0F1CDC1E1F1D20E010189
:101FC000E26F010EE36F08EC0FF0006A12000101EE
:101FD000DF517F0A08E1DE51800A05E1DD51000A88
:101FE00002E1DC51000A0EE1CCC1E0F1CDC1E1F12A
:101FF000D40E0101E26F010EE36F08EC0FF0D9C1BE
:1020000000F01200000E046E000E056E000E066E4B
:102010007F0E076EDCC100F0DDC101F0DEC102F011
:10202000DFC103F08BEC04F0010ED8B0000E006E9F
:1020300000521DE0DCC100F0DDC101F0DEC102F0A4
:10204000DFC103F0000E046E000E056E200E066E5A
:10205000820E076E05EC06F000C0DCF101C0DDF178
:1020600002C0DEF103C0DFF10101DB07CBD70101C4
:10207000000E046E000E056E200E066E820E076EB8
:10208000DCC100F0DDC101F0DEC102F0DFC103F010
:102090008BEC04F0000ED8B0010E006E00521DE073
:1020A000DCC100F0DDC101F0DEC102F0DFC103F0F0
:1020B000CD0E046ECC0E056E4C0E066E7B0E076EBA
:1020C00005EC06F000C0DCF101C0DDF102C0DEF17C
:1020D00003C0DFF10101DB2BCAD70101FF0EDC15C4
:1020E000056EFF0EDD15066E7F0EDE15076E000E07
:1020F000DF15086E05C000F006C001F007C002F051
:1021000008C003F000360090013602360336000E98
:10211000DC17000EDD17000EDE17FF0EDF17005074
:10212000DC130150DD130250DE130350DF137F0E6A
:10213000DF5D006E00C0DAF1010EDF6F005007E0D6
:10214000DC37DC91DD37DE37DF37FF0FF8D70101F1
:10215000DF51300F006ECCC1E1FFCDC1E2FF00C006
:10216000E6FFCC4BCD2B800EDB19006E800E010AF2
:10217000005C07E3800E060A006E800EDB19005C2F
:102180000AE2CCC1E1FFCDC1E2FF2E0EE66ECC4BE0
:10219000CD2B010ED86F060EDA6FDA51000A3EE041
:1021A000DF6BDCC100F0DDC101F0DEC102F0DFC198
:1021B00003F00036009001360236033600360090F8
:1021C0000136023603360050DC270150DD23025071
:1021D000DE230350DF23DC37DC91DD37DE37DF37EA
:1021E000DF51300F006ECCC1E1FFCDC1E2FF00C076
:1021F000E6FFCC4BCD2BD851000A0EE1DB07DB51BB
:10220000000A0AE1CCC1E1FFCDC1E2FF2E0EE66E6D
:10221000CC4BCD2B010ED86FDA07BFD7FF0ECC25E4
:10222000E96EFF0ECD21EA6EEECF04F00450300AC5
:1022300005E1010ECC5F000ECD5BF0D7FF0ECC2583
:10224000E96EFF0ECD21EA6EEECF04F004502E0AA7
:1022500004E1010ECC5F000ECD5BDB51000A43E0D0
:10226000CCC1E1FFCDC1E2FF650EE66ECC4BCD2BBC
:10227000800EDB19006E800E000A005C0BE2CCC100
:10228000E1FFCDC1E2FF2D0EE66ECC4BCD2BDB5135
:102290000008DB6FDBC1DAF1DB51090811E20A0E3D
:1022A000046EDAC100F02EEC0FF0300E0026CCC127
:1022B000E1FFCDC1E2FF00C0E6FF0101CC4BCD2B19
:1022C0000A0E046EDAC100F02EEC0FF008C000F028
:1022D000300E0026CCC1E1FFCDC1E2FF00C0E6FF19
:1022E0000101CC4BCD2BCCC1E1FFCDC1E2FFE66AB1
:1022F000006A1200C8C1E9FFC9C1EAFFEECF01F0D0
:102300000150000A0CE0C8C1E9FFC9C1EAFFEECFE5
:10231000E0F140EC0FF00101C84BC92BEBD71200E4
:10232000A6A202D00000FCD7A69CC8C1A9FFC9C1C3
:10233000A8FFA69EA684F29E550EA76EAA0EA76EB3
:10234000A682F28EA6941200000100500402F4CF7F
:1023500009F0F3CF08F001500502F4CF0BF0F3CFF2
:102360000AF000500502F3500926F4500A22E86AE8
:102370000B2201500402F3500926F4500A22E86AA5
:102380000B2205AEC8EF11F000500A5C01500B584B
:1023900001AECFEF11F004500A5C05500B5808C095
:1023A00000F009C001F00AC002F00BC003F01200F7
:1023B0000101CA51CB1108E0CAC1E1FFCBC1E2FF64
:1023C000C8C1E6FFC9C1E6FFC8C1E9FFC9C1EAFF4C
:1023D000EECF00F000C0CEF100C0E0F14BEC0FF00A
:1023E000005204E00101C84BC92BEED70101CC6BB0
:1023F000CE512D0A05E1010ECC6FC84BC92B06D07A
:102400000101CE512B0A02E1C84BC92B0101CE6B51
:10241000CF6BD06BD16BD26BCD6B0101CCB90ED031
:10242000C8C1E9FFC9C1EAFFEECF04F004502E0A8B
:1024300005E10101CC89C84BC92B4BD0C8C1E9FFCC
:10244000C9C1EAFFEECFE0F15AEC0FF0005242E0D2
:102450000101CC83CE51080A36E0CCB9CD07010189
:10246000CE2BCFC100F0D0C101F0D1C102F0D2C15A
:1024700003F00A0E046E000E056E066E076ED3ECB6
:1024800007F000C0CFF101C0D0F102C0D1F103C00C
:10249000D2F100000000C8C1E9FFC9C1EAFFEECFD8
:1024A00000F0300E005E016A000E015A005001017A
:1024B000CF270150D023000E01BEFF0ED123D2231F
:1024C0000000000003D00101CCA9CD2B0101C84BB5
:1024D000C92BA3D70101CE6BC8C1E9FFC9C1EAFF6F
:1024E000EECF04F00450650A0AE0C8C1E9FFC9C193
:1024F000EAFFEECF04F00450450AD8A47DD00101D4
:10250000C84BC92BC8C1E9FFC9C1EAFFEECF04F02F
:1025100004502D0A04E1CC87C84BC92B0CD0C8C18C
:10252000E9FFC9C1EAFFEECF04F004502B0A03E132
:102530000101C84BC92B0101C8C1E9FFC9C1EAFFAC
:10254000EECF04F00450300A04E10101C84BC92B5E
:10255000F2D7C8C1E9FFC9C1EAFFEECFE0F15AECFA
:102560000FF0005241E0C8C1E9FFC9C1EAFFEECF58
:10257000CEF1300E0101CE5FC84BC92BC8C1E9FFB7
:10258000C9C1EAFFEECFE0F15AEC0FF000522CE0A7
:102590000A0E0101CE03F3CF00F0C8C1E9FFC9C1A3
:1025A000EAFFEECF04F0300E045E04500024CE6F3C
:1025B000C84BC92BC8C1E9FFC9C1EAFFEECFE0F1A2
:1025C0005AEC0FF0005210E00A0E0101CE03F3CFD7
:1025D00000F0C8C1E9FFC9C1EAFFEECF04F0300E38
:1025E000045E04500024CE6F010101010101CCA75B
:1025F00003D0CE510008CE6F0101CE51CD27000E81
:10260000CB1902E1000ECA190BE00101CCA308D0DE
:10261000CAC1E1FFCBC1E2FFC8C1E6FFC9C1E6FF05
:102620000101CFC100F0D0C101F0D1C102F0D2C18F
:1026300003F08DEC05F000C0CFF101C0D0F102C075
:10264000D1F103C0D2F1046A056A066A076ACFC1F4
:1026500000F0D0C101F0D1C102F0D2C103F067ECAB
:102660000FF0010ED8A4000E006E005205E0006AC3
:10267000016A026A036A1200800E0101CD19006E20
:10268000800E000A005CD8B07BD0CD510008CD6F21
:10269000800E0101CD19006E800E0A0A005C1EE357
:1026A000CFC100F0D0C101F0D1C102F0D2C103F01E
:1026B000FF0E046EE60E056E5B0E066E5D0E076E77
:1026C00005EC06F000C0CFF101C0D0F102C0D1F19D
:1026D00003C0D2F10A0E0101CD5FDAD70101CD515D
:1026E000000A1DE0CFC100F0D0C101F0D1C102F05D
:1026F000D2C103F0CD0E046ECC0E056E4C0E066EEC
:102700007B0E076E05EC06F000C0CFF101C0D0F1E2
:1027100002C0D1F103C0D2F10101CD07DFD7010E14
:10272000046E000E056E000E066E010E076ECFC120
:1027300000F0D0C101F0D1C102F0D2C103F08BECA6
:1027400004F0010ED8B0000E006E005217E0010E2A
:102750000101CC15006E09E0010E006E000E016E45
:10276000800E026E030E036E1200010E006E000E4C
:10277000016E000E026E010E036E120001017AD08E
:10278000800E000A006E800E0101CD19005C72E21D
:102790000A0E0101CD5D1EE3CFC100F0D0C101F0F2
:1027A000D1C102F0D2C103F0F90E046E020E056E23
:1027B000150E066EA00E076E05EC06F000C0CFF1F8
:1027C00001C0D0F102C0D1F103C0D2F10A0E010163
:1027D000CD5FDED70101CD51000A1DE0CFC100F071
:1027E000D0C101F0D1C102F0D2C103F0000E046EDD
:1027F000000E056E200E066E820E076E05EC06F0CA
:1028000000C0CFF101C0D0F102C0D1F103C0D2F1BC
:102810000101CD07DFD7CFC104F0D0C105F0D1C190
:1028200006F0D2C107F0FF0E006EFF0E016E7F0EA4
:10283000026EFF0E036E8BEC04F0010ED8B0000E9A
:10284000006E005217E0010E0101CC15006E09E088
:10285000FF0E006EFF0E016EFF0E026EFF0E036E86
:102860001200FF0E006EFF0E016E7F0E026EFF0E55
:10287000036E12000101010E0101CC15006E0DE086
:10288000000ECF19006E000ED019016E800ED11906
:10289000026E000ED219036E1200CFC100F0D0C13B
:1028A00001F0D1C102F0D2C103F01200B3C1F6FFB2
:1028B000B4C1F7FFB5C1F8FF0900F5CF00F0005231
:1028C0001DE0B3C1F6FFB4C1F7FFB5C1F8FF0900C1
:1028D000F5CF00F0B1C1E1FFB2C1E2FF00C0E6FFF9
:1028E0000101B14BB22B010EB327000EB423B52367
:1028F000B1C1E1FFB2C1E2FFE66AD8D71200B3C1AD
:10290000B7F1B4C1B8F10101B66B0101B551B65DC3
:1029100012E2B1C160F07FEC0FF0B7C1E1FFB8C1C6
:10292000E2FF00C0E6FF0101B74BB82BB14BB22B61
:102930000101B62BEAD712002C0E0101B76FB86B5C
:102940003D0EB96FBA6BB3C1C8F1B4C1C9F1B5C11D
:10295000CAF1B6C1CBF1BB0ECC6F010ECD6F87ECC7
:102960000FF0B70E0101C86F010EC96F7AEC11F0BC
:10297000B1C1C8F1B2C1C9F17AEC11F0B90E0101CF
:10298000C86F010EC96F7AEC11F0BB0E0101C86F60
:10299000010EC96F7AEC11F01200000100C008F0BE
:1029A0000B6A0C6A9E0E036E0A6A026A016A006A6A
:1029B000020E0C6E35EC01F01200B3C1B7F1B4C1D8
:1029C000B8F10101B66BB551B65D12E2B1C1C8F103
:1029D000B7C1E9FFB8C1EAFFEECFC9F190EC11F041
:1029E0000101B14BB22BB74BB82B0101B62BEBD782
:1029F0001200B1C1E9FFB2C1EAFFEECF02F002500E
:102A00000101B31905E1B1C100F0B2C101F012003A
:102A10000101B14BB22BB1C1E9FFB2C1EAFFEECF68
:102A200000F00052E6E1006A016A1200B1C1E9FF5C
:102A3000B2C1EAFFEECF02F002C0B3F10250200AA9
:102A400004E00101B351090A04E10101B14BB22BC9
:102A5000EDD70101B46BB56BB66BB3512D0A04E130
:102A6000B62BB14BB22B06D00101B3512B0A02E1B8
:102A7000B14BB22BB1C1E9FFB2C1EAFFEECF00F01A
:102A800000C0B3F100C0E0F15AEC0FF000521AE0C0
:102A9000B4C100F0B5C101F00A0E046E000E056E5F
:102AA000A4EC11F0300E0101B35D026E036A000E5A
:102AB000035A02500024B46F03500120B56FB14B8C
:102AC000B22BD8D70101B65308E0B4510008006E0C
:102AD000B5C101F0E86A01561200B4C100F0B5C1F9
:102AE00001F01200B1C1C8F1B2C1C9F10101CA6B54
:102AF000CB6BD8EC11F01200B1C1E9FFB2C1EAFF13
:102B0000EECF04F004C0B3F10450200A04E0010148
:102B1000B351090A04E10101B14BB22BEDD7010118
:102B2000B46BB56BB66BB76BB86BB1C1E9FFB2C133
:102B3000EAFFEECF04F004502D0A04E1B82BB14BAC
:102B4000B22B0CD0B1C1E9FFB2C1EAFFEECF04F065
:102B500004502B0A03E10101B14BB22B0101B1C1B9
:102B6000E9FFB2C1EAFFEECF00F000C0B3F100C050
:102B7000E0F15AEC0FF000522CE0B4C100F0B5C106
:102B800001F0B6C102F0B7C103F00A0E046E000EE8
:102B9000056E000E066E000E076ED3EC07F0300EC9
:102BA0000101B35D046E056A000E055A045000244D
:102BB000B46F05500120B56F000E05BEFF0E022058
:102BC000B66F000E05BEFF0E0320B76FB14BB22BE0
:102BD000C5D70101B8530DE0006A016A026A036AB1
:102BE000B451005EB551015AB651025AB751035A59
:102BF0001200B4C100F0B5C101F0B6C102F0B7C116
:102C000003F012001F6A5FC020F05FC01EF01200C8
:102C1000816A040E956E9B0E946E936AFF0E926EFF
:102C2000800ED56E850ECD6EC16A030EB86EF19C16
:102C3000F288F28AF1949D809F90400EC76E210E1B
:102C4000C66EC68A9E969D96A398980EB66E190E6D
:102C5000B76E606A676A666A686A696A070E656E57
:102C6000D00E646EA3847F6A400E7E6E1F0E6F6E60
:102C70006E6A7A6AFF0E7B6E786A796A7E8E1200BF
:102C80001A6A1B6A1C6A1D6A676A666A0001AF6B72
:102C9000B06BB16BB26BAB6BAC6BAD6BAE6B120070
:102CA0000D0E0101E06F40EC0FF02E0E0101B16F2F
:102CB000000EB26F75C1B3F176C1B4F177C1B5F151
:102CC00056EC14F02E0E0101C86F000EC96F7AEC9D
:102CD00011F012004A0E0101756FB16BB26B760EE6
:102CE000B36F010EB46F010EB56F7FEC14F00101EC
:102CF000765156181EE1010EB16F000EB26F610ED3
:102D0000B36F000EB46F75C1B5F17FEC14F0020E15
:102D100001017525B16FB26B000EB223AB0EB36F1C
:102D2000000EB46F75C1B5F17FEC14F0010E006EAA
:102D30001200006A1200016A9EBA012A01C000F066
:102D40001200AECF5FF0ABA202D0AB98AB885FC0F1
:102D500000F012005F500A0A03E05F500D0A15E10F
:102D6000F50EE16E000EE26E5750E126D8B0E22A71
:102D7000E66A5750000806E2576A010E006E000E20
:102D8000016E1200006A016A1200F50EE16E000E7B
:102D9000E26E5750E126D8B0E22A5FC0E6FF572A1C
:102DA000006A016A1200F50E0101786F000E796F5A
:102DB00075C1F6FF76C1F7FF77C1F8FF0900F5CFBF
:102DC00000F0005225E078C1E9FF79C1EAFFEECFBB
:102DD00000F000521DE078C1E9FF79C1EAFFEECFB3
:102DE00002F075C1F6FF76C1F7FF77C1F8FF090061
:102DF000F5CF01F00250011802E0006A1200010153
:102E0000784B792B010E7527000E76237723D0D7C8
:102E1000010E006E1200680E0101756F740E766F60
:102E2000776B680E786F760E796F7A6B680E7B6FB2
:102E3000700E7C6F7D6B680E7E6F690E7F6F806B8E
:102E4000680E816F640E826F836B680E846F660EEE
:102E5000856F670E866F300E876F886B680E896F7F
:102E60006F0E8A6F750E8B6F740E8C6F8D6B680E84
:102E70008E6F650E8F6F720E906F720E916F926BE8
:102E80006D0E936F630E946F6D0E956F640E966F5B
:102E9000976B6D0E986F760E996F9A6B6D0E9B6F98
:102EA000700E9C6F9D6B6D0E9E6F6F0E9F6F750EFB
:102EB000A06F740EA16FA26B6D0EA36F650EA46F51
:102EC000A56B6D0EA66F670EA76F650EA86FA96B39
:102ED000680EAA6F670EAB6F650EAC6FAD6B630EBD
:102EE000AE6F630EAF6FB06B750EB16F010EB26F48
:102EF00061C000F062C001F063C002F064C003F082
:102F00008DEC05F000C0B3F101C0B4F102C0B5F121
:102F100003C0B6F19CEC14F0780E0101B16F010E04
:102F2000B26F65C000F066C001F067C002F068C013
:102F300003F08DEC05F000C0B3F101C0B4F102C0A4
:102F4000B5F103C0B6F19CEC14F07B0E0101B16F3A
:102F5000010EB26F91C0B3F192C0B4F193C0B5F15C
:102F600094C0B6F19CEC14F07E0E0101B16F010E1D
:102F7000B26F95C0B3F196C0B4F197C0B5F198C0E7
:102F8000B6F19CEC14F0810E0101B16F010EB26F2D
:102F900099C0B3F19AC0B4F19BC0B5F19CC0B6F131
:102FA0009CEC14F0840E0101B16F010EB26F9DC054
:102FB000B3F19EC0B4F19FC0B5F1A0C0B6F19CECD6
:102FC00014F0890E0101B16F010EB26FA7C000F0BD
:102FD000A8C001F0E3EC05F000C0B3F101C0B4F10A
:102FE00002C0B5F103C0B6F19CEC14F08E0E0101E5
:102FF000B16F010EB26F69C000F06AC001F06BC022
:1030000002F06CC003F08DEC05F000C0B3F101C01C
:10301000B4F102C0B5F103C0B6F19CEC14F0930E0C
:103020000101B16F010EB26FABC000F0ACC001F096
:10303000ADC002F0AEC003F08DEC05F000C0B3F1FE
:1030400001C0B4F102C0B5F103C0B6F19CEC14F0BC
:10305000980E0101B16F010EB26FAFC000F0B0C0A9
:1030600001F0B1C002F0B2C003F08DEC05F000C079
:10307000B3F101C0B4F102C0B5F103C0B6F19CECEC
:1030800014F09B0E0101B16F010EB26FDBC0B3F102
:10309000DCC0B4F1DDC0B5F1DEC0B6F19CEC14F0DB
:1030A0009E0E0101B16F010EB26FF1C000F0F2C0CF
:1030B00001F0E3EC05F000C0B3F101C0B4F102C0CF
:1030C000B5F103C0B6F19CEC14F0A30E0101B16F91
:1030D000010EB26FF3C000F0CDEC14F000C0B3F1FC
:1030E00001C0B4F102C0B5F103C0B6F19CEC14F01C
:1030F000A60E0101B16F010EB26F2DC000F0CDEC34
:1031000014F000C0B3F101C0B4F102C0B5F103C0C6
:10311000B6F19CEC14F0AA0E0101B16F010EB26F72
:1031200021C000F0CDEC14F000C0B3F101C0B4F147
:1031300002C0B5F103C0B6F19CEC14F0AE0E010173
:10314000B16F010EB26F22C000F0CDEC14F000C0E0
:10315000B3F101C0B4F102C0B5F103C0B6F19CEC0B
:1031600014F012004A0E5F6E0101B16BB26B560E85
:10317000B36F000EB46F010EB56FDDEC14F0010EED
:103180000101B16F000EB26F610EB36F000EB46F2C
:103190005FC0B5F1DDEC14F0020E5F240101B16FE8
:1031A000B26B000EB223AB0EB36F000EB46F5FC0F4
:1031B000B5F1DDEC14F0120075C1B1F176C1B2F1D8
:1031C0003D0E0101B36FF9EC14F000C077F101C0BE
:1031D00078F1010E00240101776F000E0120786F55
:1031E00077C1B1F178C1B2F116EC15F01200FF0E03
:1031F0005F6E0101B16BB26B5F0EB36F000EB46F07
:10320000010EB56FDDEC14F0120075C1B1F176C19D
:10321000B2F13D0E0101B36FF9EC14F000C077F18B
:1032200001C078F1010E00240101776F000E01202A
:10323000786F77C1B1F178C1B2F172EC15F012007C
:1032400075C1B1F176C1B2F13D0E0101B36FF9EC78
:1032500014F000C077F101C078F1010E00240101E3
:10326000776F000E0120786F77C1B1F178C1B2F1AC
:103270007CEC15F01200FF0E586E000E576E000E1B
:103280002C6E280E196E000E216E010E2D6E010E91
:10329000226E000E2B6E000E596E000E5A6E000E3E
:1032A0005B6E000E5C6E000E5D6E000E5E6E000EBC
:1032B00001011D6F000E1E6F000E1F6F000E206FAC
:1032C000000E156E000E166E000E176E000E186EB4
:1032D000000E1A6E000E1B6E000E1C6E000E1D6E90
:1032E000000E236E000E246E000E256E000E266E5C
:1032F000000E216F000E226F000E236F000E246F50
:10330000000E276E000E286E000E296E000E2A6E2B
:10331000FA0E0001616F000E626F000E636F000E07
:10332000646F000E656F000E666F000E676F000E13
:10333000686F000E696F000E6A6F000E6B6F000EF3
:103340006C6F000E6D6F000E6E6F000E6F6F000ED3
:10335000706F000E716F000E726FF40E736F010EBE
:10336000746F000E756F000E766F000E776F000E93
:10337000786F000E796F000E7A6F000E7B6F000E73
:103380007C6F000E7D6F000E7E6F000E7F6F000E53
:10339000806F000E816F000E826F000E836F000E33
:1033A000846F000E856F000E866F000E876F000E13
:1033B000886F000E896F000E8A6F000E8B6F000EF3
:1033C0008C6F000E8D6F000E8E6F000E8F6F000ED3
:1033D000906F000E916F000E926F480E936F830EE8
:1033E000946F0A0E956FD70E966F230E976F770E18
:1033F000986F000E996F000E9A6F000E9B6F000E73
:103400009C6F9A0E9D6F990E9E6F190E9F6F7E0E88
:10341000A06F000EA16F000EA26F000EA36F000E32
:10342000A46FFE0EA56F000EA66F000EA76F000E14
:10343000A86F000EA96F000EAA6F000EAB6F000EF2
:10344000AC6F000EAD6F000EAE6F000EAF6F000ED2
:10345000B06F000EB16F000EB26F000EB36F000EB2
:10346000B46F000EB56F000EB66FC80EB76F000ECA
:10347000B86F800EB96FF00EBA6FFA0EBB6F020E06
:10348000BC6FD00EBD6F070EBE6F200EBF6F4E0E0D
:10349000C06F000EC16F000EC26F000EC36F000E32
:1034A000C46F000EC56F000EC66F000EC76F000E12
:1034B000C86F000EC96F000ECA6F000ECB6F000EF2
:1034C000CC6F000ECD6F000ECE6F000ECF6F000ED2
:1034D000D06F000ED16F000ED26F000ED36F000EB2
:1034E000D46F000ED56F000ED66F000ED76F000E92
:1034F000D86F000ED96F000EDA6F660EDB6F660EA6
:10350000DC6F660EDD6F7E0EDE6F0A0EDF6FD70E8C
:10351000E06F230EE16F7B0EE26FCD0EE36FCC0EFA
:10352000E46F4C0EE56F7C0EE66F000EE76F000E49
:10353000E86F000EE96F000EEA6F000EEB6F000EF1
:10354000EC6F000EED6F800EEE6FFC0EEF6F030E52
:10355000F06F000EF16F000EF26F000EF36F000EB1
:10356000F46F960E0101256F3A0E266F000E276F3D
:103570009E0E286F3A0E296F000E2A6FB00E2B6F29
:103580003A0E2C6F000E2D6FAC0E566E1200AC8AE8
:10359000900EAB6E948E949C9EAA03D0AECF5FF03B
:1035A000FBD712003BEC19F0576A400EAF6EAC84AB
:1035B000C7EC1AF0780E5F6E02EC16F008EC16F00D
:1035C00040EC16F0B40E0101756F3A0E766F000EE6
:1035D000776F50EC16F06AEC16F0005208E128C143
:1035E00075F129C176F12AC177F150EC16F025C1A9
:1035F00075F126C176F127C177F150EC16F0D08E27
:10360000F28EF28C8190046A83BC042A041C006E42
:10361000000E00B0400E8318400B831A9BEC16F08E
:103620000052D8B436D2A1EC16F000C05FF0AAEC7C
:1036300016F000500110D8B42BD2C40E0101756FE2
:103640003A0E766F000E776FD3EC16F0005203E05F
:103650000BEC17F015D2C60E0101756F3A0E766F9E
:10366000000E776FD3EC16F0005203E0B2EC18F0C6
:1036700007D2C80E0101756F3A0E766F000E776F94
:10368000D3EC16F0005203E06AEC16F0F9D1CC0E40
:103690000101756F3A0E766F000E776FD3EC16F05E
:1036A00000520AE0F50E0101756F000E766FDCEC3A
:1036B00018F000C02DF0E4D1D00E0101756F3A0E64
:1036C000766F000E776FD3EC16F000520AE0F50E1D
:1036D0000101756F000E766FDCEC18F000C021F070
:1036E000CFD1D40E0101756F3A0E766F000E776F51
:1036F000D3EC16F0005203E0F7EC18F0C1D1D60E6F
:103700000101756F3A0E766F000E776FD3EC16F0ED
:10371000005210E0F50E0101756F000E766F05EC9A
:1037200019F000C09DF001C09EF002C09FF003C0E0
:10373000A0F0A6D1DC0E0101756F3A0E766F000E77
:10374000776FD3EC16F0005212E0F50E0101756FA1
:10375000000E766FDCEC18F000C065F001C066F07A
:10376000000E01BEFF0E0001676F686F89D1E00E89
:103770000101756F3A0E766F000E776FD3EC16F07D
:10378000005210E0F50E0101756F000E766F05EC2A
:1037900019F000C091F001C092F002C093F003C094
:1037A00094F06ED1E40E0101756F3A0E766F000E43
:1037B000776FD3EC16F0005210E0F50E0101756F33
:1037C000000E766F05EC19F000C095F001C096F080
:1037D00002C097F003C098F053D1E80E0101756F55
:1037E0003A0E766F000E776FD3EC16F0005210E0B1
:1037F000F50E0101756F000E766F05EC19F000C033
:1038000099F001C09AF002C09BF003C09CF038D13F
:10381000EC0E0101756F3A0E766F000E776FD3ECE8
:1038200016F000520CE0F50E0101756F000E766F78
:10383000DCEC18F000C05DF001C05EF021D1F00EAC
:103840000101756F3A0E766F000E776FD3EC16F0AC
:10385000005212E0F50E0101756F000E766FDCEC80
:1038600018F000C061F001C062F0000E01BEFF0E52
:103870000001636F646F04D1F40E0101756F3A0E9D
:10388000766F000E776FD3EC16F0005210E0F50E55
:103890000101756F000E766F05EC19F000C0DBF0CA
:1038A00001C0DCF002C0DDF003C0DEF0E9D0F80EAC
:1038B0000101756F3A0E766F000E776FD3EC16F03C
:1038C000005210E0F50E0101756F000E766F05ECE9
:1038D00019F000C0DFF001C0E0F002C0E1F003C069
:1038E000E2F0CED0FC0E0101756F3A0E766F000E3D
:1038F000776FD3EC16F0005210E0F50E0101756FF2
:10390000000E766F05EC19F000C0E3F001C0E4F0A2
:1039100002C0E5F003C0E6F0B3D0000E0101756F00
:103920003B0E766F000E776FD3EC16F0005210E06E
:10393000F50E0101756F000E766F05EC19F000C0F1
:10394000EBF001C0ECF002C0EDF003C0EEF098D057
:10395000040E0101756F3B0E766F000E776FD3EC8E
:1039600016F000520CE0F50E0101756F000E766F37
:10397000DCEC18F000C01DF101C01EF181D0080E72
:103980000101756F3B0E766F000E776FD3EC16F06A
:10399000005210E0F50E0101756F000E766F20ECFD
:1039A00019F000C0ABF001C0ACF002C0ADF003C034
:1039B000AEF066D00E0E0101756F3B0E766F000EF5
:1039C000776FD3EC16F000520CE0F50E0101756F25
:1039D000000E766FDCEC18F000C01FF101C020F182
:1039E0004FD0120E0101756F3B0E766F000E776F90
:1039F000D3EC16F0005210E0F50E0101756F000EC9
:103A0000766F20EC19F000C0AFF001C0B0F002C03A
:103A1000B1F003C0B2F034D0160E0101756F3B0E49
:103A2000766F000E776FD3EC16F000520AE0F50EB9
:103A30000101756F000E766FDCEC18F000C022F00B
:103A40001FD01A0E0101756F3B0E766F000E776F57
:103A5000D3EC16F0005205E0B80E5B6E0B0E5C6EF8
:103A60000FD02BC175F12CC176F12DC177F150EC3F
:103A700016F0F50E0101C86F000EC96F7AEC11F057
:103A800025C175F126C176F127C177F150EC16F00A
:103A9000C5D5B9D5FFD70A436D643A3E00FF0A4E3B
:103AA0006F20454550524F4D20446174612E00FFF8
:103AB0000A3F3A0045787472756465722076302E3C
:103AC000320000FF73007600726400FF6D676500CE
:103AD0006867650064006866673000FF686600FF1D
:103AE000687000FF686900FF686400FF687900FF84
:103AF000687400FF6D7000FF6D6900FF6D6400FF6A
:103B00006D6667006D7900FF6D636D6400FF6D7316
:103B100070006D6600FF636300FF7400FFFFFFFF2E
:020000040030CA
:0E000000FFF6FDFEFFFBFFFFFFFFFFFFFFFF10
:00000001FF
