:10000000D3EF0AF0FFFFFFFF03EF01F000010AAE9C
:10001000029E000E1200FFFFF8CF5EF1F7CF5DF1F8
:10002000F6CF5CF101C062F100C061F1E8CFBBF036
:10003000D8CFBCF0E0CFBDF0E9CFB2F0EACFB3F05B
:10004000E1CFB4F0E2CFB5F0F2A48CD0010E000104
:10005000BA6F016A83BE012A0150000A10E1BA6B2F
:1000600020C0F6FF21C0F7FF22C0F8FF0900F5CF3E
:1000700000F01EC0E1FF1FC0E2FF00C0E6FF016A02
:1000800083BC012A0150000A11E10001BA6B23C0B0
:10009000F6FF24C0F7FF25C0F8FF0900F5CF00F0F8
:1000A0001EC0E1FF1FC0E2FF00C0E6FF016A83BA85
:1000B000012A0150000A11E10001BA6B26C0F6FFC7
:1000C00027C0F7FF28C0F8FF0900F5CF00F01EC0D9
:1000D000E1FF1FC0E2FF00C0E6FF0001016A83B834
:1000E000012A0150000A12E0016A83B6012A015078
:1000F000000A0CE0016A83B4012A0150000A06E0FC
:10010000016A83B2012A0150000A11E10001BA6BB1
:1001100029C0F6FF2AC0F7FF2BC0F8FF0900F5CF72
:1001200000F01EC0E1FF1FC0E2FF00C0E6FF0001BB
:10013000BA51010A12E12CC0F6FF2DC0F7FF2EC004
:10014000F8FF0900F5CF00F01EC0E1FF1FC0E2FF7D
:1001500000C0E6FF8298828A02D08288829ABAC062
:1001600015F0F2940001BBC0E8FFBCC0D8FFBDC0D1
:10017000E0FFB2C0E9FFB3C0EAFFB4C0E1FFB5C021
:10018000E2FFF8CF5EF1F7CF5DF1F6CF5CF162C12F
:1001900001F061C100F010000001B651B75D15E239
:1001A000B651B85D09E2B651B95D03E2B6C000F0E0
:1001B0001200B9C000F01200B851B95D03E2B8C036
:1001C00000F01200B9C000F01200B751B85D09E2AA
:1001D000B751B95D03E2B7C000F01200B9C000F03A
:1001E0001200B851B95D03E2B8C000F01200B9C006
:1001F00000F012000001B76BB76BB651B75D02E2B9
:10020000B72BFBD7120001C060F100C05FF1E9CF4E
:10021000B2F0EACFB3F0E1CFB4F0E2CFB5F0F2A0A4
:10022000E3D00001AE6BAF6BB06BB16B1550010A40
:1002300006E18290829282948296F290D5D01A50F2
:10024000000A26E1016A81BE012A000E01B0010EFA
:100250008218010B821A016A81BC012A000E01B0CA
:10026000020E8218020B821A016A81BA012A000E5C
:1002700001B0040E8218040B821A016A81B8012AA7
:10028000000E01B0080E8218080B821AF290ACD052
:10029000000116C0B6F017C0B7F018C0B8F019C00A
:1002A000B9F0CCEC00F000C0ADF0016A81BE012ACB
:1002B0000150000A0AE1016A1DBE012A0150010A2B
:1002C00004E1010E006E66EF01F0006A00C0AEF0BE
:1002D000016A81BC012A0150000A0AE1016A1DBCC1
:1002E000012A0150010A04E1010E006E79EF01F0CC
:1002F000006A00C0AFF0016A81BA012A0150000A09
:100300000AE1016A1DBA012A0150010A04E1010E45
:10031000006E8CEF01F0006A00C0B0F0016A81B895
:10032000012A0150000A0AE1016A1DB8012A0150A0
:10033000010A04E1010E006E9FEF01F0006A00C0A7
:10034000B1F00001AC6B0001AD51AC5D4AE2AE51C1
:10035000010A04E11650AC5DD8A082800001AF51C3
:10036000010A04E11750AC5DD8A082820001B051AF
:10037000010A04E11850AC5DD8A082840001B1519B
:10038000010A04E11950AC5DD8A082861CC0B6F009
:10039000FAEC00F00001AE51010A04E11650AC5D28
:1003A000D8A082900001AF51010A04E11750AC5D62
:1003B000D8A082920001B051010A04E11850AC5D4E
:1003C000D8A082940001B151010A04E11950AC5D3A
:1003D000D8A082961BC0B6F0FAEC00F00001AC2B5E
:1003E000B2D781CF1DF0F2900001B2C0E9FFB3C0D7
:1003F000EAFFB4C0E1FFB5C0E2FF60C101F05FC138
:1004000000F011000001026A016A006A086A036ACA
:10041000000E120000010B820BAE15EF02F0036814
:100420000268016800680A360232FF0E12000001FD
:100430000B840BAE23EF02F0010E036E026A016A19
:10044000006A0A360232FF0E1200016AACB2012ABB
:100450000150000A02E10000F8D756C1ADFF1200BA
:1004600056C15AF157C15BF15AC102F05BC103F0AA
:1004700001015A4B5B2B58C1E9FF59C1EAFF584BA8
:10048000592BEECF00F002C0E1FF03C0E2FF00C035
:10049000E6FF02C0E9FF03C0EAFFEECF00F0005222
:1004A000E3E156C100F057C101F0120000010A6AF1
:1004B0000350D8A40A800750D8A40A820A50D8B49E
:1004C000BAEF02F0030AD8B473EF02F00AB06EEF8D
:1004D00002F006AEB8EF02F0B6EF02F002AEB6EFF1
:1004E00002F0B8EF02F00250800B0A6E029E065036
:1004F000800B069E0A18D8B484EF02F00A50D8B4D4
:10050000B6EF02F0B8EF02F00750035CD8B48EEFFC
:1005100002F0D8A0AAEF02F0B0EF02F00650025CA1
:10052000D8B498EF02F0D8A0AAEF02F0B0EF02F032
:100530000550015CD8B4A2EF02F0D8A0AAEF02F0F7
:10054000B0EF02F00450005CD8B4BAEF02F0D8B0BB
:10055000B0EF02F00A52D8B4B8EF02F0B6EF02F0F2
:100560000A52D8B4B6EF02F0B8EF02F0D880120009
:10057000D8901200D880D884120012000001086AB6
:10058000096A000E0762036444EF03F00250061884
:100590000A6E075003267E0ED8A0D5EF02F0035E48
:1005A000D8B049EF03F0D9EF02F0035ED8A04EEFC8
:1005B00003F0028E068E02C00EF001C00BF000C0E8
:1005C0000DF000500402F4CF0CF001500502F4CFFE
:1005D00000F0F3CF08F00402F3500C26F450082288
:1005E000000E00220D500502F3500C26F450082294
:1005F000000E002202500402F3500826F45000229C
:1006000002500502016A000E0122F3500026F45048
:1006100001220D500602F3500826F4500022026A0F
:10062000000E012202220B500602F3500026F45065
:100630000122000E02220E500602F3500126F45051
:10064000022202BE2CEF03F00836003601360236D5
:100650000306D8B44EEF03F03FEF03F0D880800ECE
:1006600008640030000E002201220222D8A03FEFD1
:1006700003F0023201320032034A49EF03F00AAEBE
:10068000029E000E51EF03F0010E02EC02F051EF5A
:1006900003F0020E0AEC02F051EF03F0040E17EC27
:1006A00002F012000001086B080E0C6E00340836D0
:1006B0000450085ED8B05FEF03F00826D8900036EB
:1006C0000C2E56EF03F01200A69C3EC1A9FFA69E79
:1006D000A680A8CF00F012003EC1E9FF3FC1EAFFAB
:1006E000EECF01F00150000A0CE03EC1E9FF3FC12E
:1006F000EAFFEECF56F125EC02F001013E4B3F2B15
:10070000EBD70D0E0101566F25EC02F012004E0ED4
:100710000101446F610E456F4E0E466F476B300E00
:10072000486F496B490E4A6F4E0E4B6F460E4C6F29
:100730004D6B4E6B516B3EC152F13FC153F140C105
:1007400054F141C155F15551FF0A08E15451FF0AD6
:1007500005E15351FF0A02E15251FF0A0EE142C185
:1007600056F143C157F1440E0101586F010E596F04
:1007700030EC02F0030E006E1200010E01014F6F0B
:1007800054AF0AD0547F4F2B42C1E1FF43C1E2FF77
:100790002D0EE66E424B432B000E006E01015519E3
:1007A00008E10050541905E10050531902E152517B
:1007B000000A0DE142C156F143C157F1480E010153
:1007C000586F010E596F30EC02F0006A12000101FF
:1007D00055517F0A08E15451800A05E15351000A3E
:1007E00002E15251000A0EE142C156F143C157F1F4
:1007F0004A0E0101586F010E596F30EC02F04FC1E3
:1008000000F01200000E046E000E056E000E066E63
:100810007F0E076E52C100F053C101F054C102F0C7
:1008200055C103F056EC02F0010ED8B0000E006E78
:1008300000521DE052C100F053C101F054C102F05A
:1008400055C103F0000E046E000E056E200E066EFC
:10085000820E076EBEEC02F000C052F101C053F1EF
:1008600002C054F103C055F101015107CBD701017A
:10087000000E046E000E056E200E066E820E076ED0
:1008800052C100F053C101F054C102F055C103F050
:1008900056EC02F0000ED8B0010E006E00521DE0C2
:1008A00052C100F053C101F054C102F055C103F030
:1008B000CD0E046ECC0E056E4C0E066E7B0E076ED2
:1008C000BEEC02F000C052F101C053F102C054F17D
:1008D00003C055F10101512BCAD70101FF0E52157A
:1008E000056EFF0E5315066E7F0E5415076E000E33
:1008F0005515086E05C000F006C001F007C002F0F3
:1009000008C003F000360090013602360336000EB0
:100910005217000E5317000E5417FF0E55170050B4
:1009200052130150531302505413035055137F0EAA
:10093000555D006E00C050F1010E556F005007E08C
:1009400052375291533754375537FF0FF8D70101BB
:100950005551300F006E42C1E1FF43C1E2FF00C0BC
:10096000E6FF424B432B800E5119006E800E010AA8
:10097000005C07E3800E060A006E800E5119005CD1
:100980000AE242C1E1FF43C1E2FF2E0EE66E424B96
:10099000432B010E4E6F060E506F5051000A3EE081
:1009A000556B52C100F053C101F054C102F055C162
:1009B00003F0003600900136023603360036009010
:1009C000013602360336005052270150532302509D
:1009D00054230350552352375291533754375537C8
:1009E0005551300F006E42C1E1FF43C1E2FF00C02C
:1009F000E6FF424B432B4E51000A0EE15107515185
:100A0000000A0AE142C1E1FF43C1E2FF2E0EE66E99
:100A1000424B432B010E4E6F5007BFD7FF0E4225AE
:100A2000E96EFF0E4321EA6EEECF04F00450300A67
:100A300005E1010E425F000E435BF0D7FF0E422539
:100A4000E96EFF0E4321EA6EEECF04F004502E0A49
:100A500004E1010E425F000E435B5151000A43E086
:100A600042C1E1FF43C1E2FF650EE66E424B432BFC
:100A7000800E5119006E800E000A005C0BE242C12C
:100A8000E1FF43C1E2FF2D0EE66E424B432B515175
:100A90000008516F51C150F15151090811E20A0E7D
:100AA000046E50C100F052EC03F0300E002642C13B
:100AB000E1FF43C1E2FF00C0E6FF0101424B432BCF
:100AC0000A0E046E50C100F052EC03F008C000F0B2
:100AD000300E002642C1E1FF43C1E2FF00C0E6FF45
:100AE0000101424B432B42C1E1FF43C1E2FFE66AF1
:100AF000006A120000010CB0BDEF05F00CA265EF1A
:100B000006F00E6A000E0264D4EF05F0F00E021437
:100B1000D8A49FEF05F0023A01380F0B02260138E6
:100B2000F00B016E00380F0B01260038F00B006E41
:100B300008380F0B00260838F00B086E0E84D8908A
:100B400002BEB8EF05F008360036013602360E2A2E
:100B500002BEB8EF05F008360036013602360E2A1E
:100B600002BEB8EF05F008360036013602360E2A0E
:100B70000E50036459EF06F0035E0BBC08AE5FEF46
:100B800006F0D880800E08640030000E002201229A
:100B90000222D8A05FEF06F0023201320032034A8F
:100BA00065EF06F05FEF06F001C002F000C001F053
:100BB00008C000F0086A000E0E8602640BEF06F013
:100BC000F00E0214D8A4F3EF05F0023A01380F0B2F
:100BD00002260138F00B016E00380F0B0126003899
:100BE000F00B006E0E84D89002BEB8EF05F0003610
:100BF000013602360E2A02BEB8EF05F00036013685
:100C000002360E2A02BEB8EF05F000360136023673
:100C10000E2AB8EF05F001C002F000C001F0006A32
:100C2000000E0E960E88026438EF06F0F00E0214E5
:100C3000D8A423EF06F0023A01380F0B0226013840
:100C4000F00B016E0E84D89002BEB8EF05F00136AD
:100C500002360E2A02BEB8EF05F0013602360E2A21
:100C600002BEB8EF05F0013602360E2AB8EF05F0E5
:100C700001C002F0016A000E0E8602646BEF06F0FE
:100C8000F00E0214D8A447EF06F0023A0E84D89072
:100C900002BEB8EF05F002360E2A02BEB8EF05F02C
:100CA00002360E2A02BEB8EF05F002360E2AB8EF61
:100CB00005F0010E0C6E17EC02F06FEF06F0020E5D
:100CC0000C6E06EC00F06FEF06F0040E0C6E0AECF2
:100CD00002F06FEF06F0080E0C6E02EC02F012004C
:100CE000A6A202D00000FCD7A69C3EC1A9FF3FC12E
:100CF000A8FFA69EA684F29E550EA76EAA0EA76E0A
:100D0000A682F28EA694120001013E51390807E333
:100D1000300E3E5D04E3010E006E90EF06F0006AB7
:100D20001200000100500402F4CF09F0F3CF08F0E4
:100D300001500502F4CF0BF0F3CF0AF0005005028A
:100D4000F3500926F4500A22E86A0B2201500402EB
:100D5000F3500926F4500A22E86A0B2205AEB5EFDB
:100D600006F000500A5C01500B5801AEBCEF06F0D3
:100D700004500A5C05500B5808C000F009C001F08F
:100D80000AC002F00BC003F012002DC1F6FF2EC105
:100D9000F7FF2FC1F8FF0900F5CF00F000521DE06A
:100DA0002DC1F6FF2EC1F7FF2FC1F8FF0900F5CFC7
:100DB00000F02BC1E1FF2CC1E2FF00C0E6FF010102
:100DC0002B4B2C2B010E2D27000E2E232F232BC156
:100DD000E1FF2CC1E2FFE66AD8D712002DC131F144
:100DE0002EC132F10101306B2F51305D12E22BC167
:100DF0003EF164EC03F031C1E1FF32C1E2FF00C01B
:100E0000E6FF0101314B322B2B4B2C2B0101302BF8
:100E1000EBD712002BC13EF12CC13FF16CEC03F07B
:100E20002DC13EF12EC13FF12FC140F130C141F142
:100E3000310E0101426F010E436F87EC03F0310E5A
:100E400001013E6F010E3F6F6CEC03F012000001D8
:100E500000C008F00B6A0C6A9E0E036E0A6A026AF2
:100E6000016A006A020E0C6E7AEC05F012002DC1C8
:100E700031F12EC132F10101306B2F51305D12E2A0
:100E80002BC13EF131C1E9FF32C1EAFFEECF3FF1A4
:100E900070EC06F001012B4B2C2B314B322B010156
:100EA000302BEBD712002BC1E9FF2CC1EAFFEECFAC
:100EB00002F0025001012D1905E12BC100F02CC1F7
:100EC00001F0120001012B4B2C2B2BC1E9FF2CC18F
:100ED000EAFFEECF00F00052E6E1006A016A12007C
:100EE0002BC1E9FF2CC1EAFFEECF02F002C02DF1C9
:100EF0000250200A04E001012D51090A04E1010118
:100F00002B4B2C2BEDD701012E6B2F6B306B2D5102
:100F10002D0A04E1302B2B4B2C2B06D001012D5137
:100F20002B0A02E12B4B2C2B2BC1E9FF2CC1EAFF32
:100F3000EECF00F000C02DF100C03EF184EC06F0D1
:100F400000521AE02EC100F02FC101F00A0E046E0B
:100F5000000E056E91EC06F0300E01012D5D026E63
:100F6000036A000E035A025000242E6F0350012022
:100F70002F6F2B4B2C2BD8D70101305308E02E516B
:100F80000008006E2FC101F0E86A015612002EC160
:100F900000F02FC101F01200FF0E956E800E946ECE
:100FA000F00E936E926A81CF1DF0800ED56EF286A0
:100FB000F180F19EF28AF19412000D0E0101566F3C
:100FC00025EC02F02F0E01012B6F000E2C6FC2C01A
:100FD0002DF1C3C02EF1C4C02FF1C5EC06F02F0EC9
:100FE00001013E6F000E3F6F6CEC03F01200070E24
:100FF0000001C26F01012B6B2C6BC30E2D6F000E15
:101000002E6F010E2F6FEEEC06F00001C351571842
:1010100010E1010E01012B6F000E2C6F160E2D6FCB
:10102000000E2E6FC2C02FF1EEEC06F0010E006E26
:101030001200006A1200016A9EBA012A01C000F083
:101040001200AECFC2F0ABA202D0AB98AB88C2C048
:1010500000F012000001C2510A0A03E0C2510D0A59
:1010600016E1580EE16E000EE26E00018051E1269D
:10107000D8B0E22AE66A8051000806E2806B010ED1
:10108000006E000E016E1200006A016A1200C2C0FA
:1010900056F125EC02F0580EE16E000EE26E0001F2
:1010A0008051E126D8B0E22AC2C0E6FF802B006A58
:1010B000016A1200580E0001C56F000EC66FC2C053
:1010C000F6FFC3C0F7FFC4C0F8FF0900F5CF00F07A
:1010D000005225E0C5C0E9FFC6C0EAFFEECF00F030
:1010E00000521DE0C5C0E9FFC6C0EAFFEECF02F026
:1010F000C2C0F6FFC3C0F7FFC4C0F8FF0900F5CFB8
:1011000001F00250011802E0006A12000001C54B14
:10111000C62B010EC227000EC323C423D0D7010E55
:10112000006E12000A0E0001C26F430EC36F4E0E16
:10113000C46F430EC56F200EC66F430EC76F6F0E90
:10114000C86F6E0EC96F740ECA6F720ECB6F6F0EC2
:10115000CC6F6C0ECD6F6C0ECE6F650ECF6F720EB6
:10116000D06F200ED16F530ED26F740ED36F610EFD
:10117000D46F740ED56F750ED66F730ED76F3A0E8F
:10118000D86F0A0ED96FDA6B650EDB6F720EDC6FEB
:10119000720EDD6F3D0EDE6FDF6B780EE06F6D0E51
:1011A000E16F750EE26F6C0EE36F740EE46F3D0E2F
:1011B000E56FE66B790EE76F6D0EE86F750EE96F00
:1011C0006C0EEA6F740EEB6F3D0EEC6FED6B7A0EEA
:1011D000EE6F6D0EEF6F750EF06F6C0EF16F740E9B
:1011E000F26F3D0EF36FF46B610EF56F6D0EF66FDF
:1011F000750EF76F6C0EF86F740EF96F3D0EFA6F87
:10120000FB6B6D0EFC6F750EFD6F6C0EFE6F740E3A
:10121000FF6F690E0101006F700E016F6C0E026F9F
:10122000690E036F650E046F720E056F200E066F58
:10123000650E076F6E0E086F610E096F620E0A6F02
:101240006C0E0B6F650E0C6F3D0E0D6F0E6B730EFB
:101250000F6F740E106F650E116F700E126F720E9D
:10126000136F610E146F740E156F650E166F3D0EC1
:10127000176F186B0A0E196F430E1A6F750E1B6FDE
:10128000720E1C6F720E1D6F650E1E6F6E0E1F6F3D
:10129000740E206F200E216F530E226F740E236F79
:1012A000610E246F740E256F750E266F730E276FF7
:1012B0003A0E286F200E296F2A6BC20E3E6F000E69
:1012C0003F6F6CEC03F0DB0E01012B6F000E2C6FF7
:1012D00015C000F027EC07F000C02DF101C02EF181
:1012E00002C02FF103C030F10AEC07F0E00E01015B
:1012F0002B6F000E2C6F16C000F027EC07F000C01B
:101300002DF101C02EF102C02FF103C030F10AEC23
:1013100007F0E70E01012B6F000E2C6F17C000F0D5
:1013200027EC07F000C02DF101C02EF102C02FF113
:1013300003C030F10AEC07F0EE0E01012B6F000E36
:101340002C6F18C000F027EC07F000C02DF101C091
:101350002EF102C02FF103C030F10AEC07F0F50EB8
:1013600001012B6F000E2C6F19C000F027EC07F065
:1013700000C02DF101C02EF102C02FF103C030F1E9
:101380000AEC07F0FC0E01012B6F000E2C6F1AC047
:1013900000F027EC07F000C02DF101C02EF102C0D3
:1013A0002FF103C030F10AEC07F00F0E01012B6F93
:1013B000010E2C6F1BC000F027EC07F000C02DF1D0
:1013C00001C02EF102C02FF103C030F10AEC07F08A
:1013D000190E01013E6F010E3F6F6CEC03F01EC051
:1013E0003EF11FC03FF16CEC03F01200070E00014C
:1013F000C26F01012B6B2C6B570E2D6F000E2E6FE1
:10140000010E2F6F37EC07F0010E01012B6F000E5C
:101410002C6F160E2D6F000E2E6FC2C02FF137EC01
:1014200007F01200FF0E0001C26F01012B6B2C6B45
:10143000C20E2D6F000E2E6F010E2F6F37EC07F0CE
:101440001200C2C02BF1C3C02CF13D0E01012D6F63
:1014500053EC07F000C0C4F001C0C5F0010E002439
:101460000001C46F000E0120C56FC4C02BF1C5C0C0
:101470002CF170EC07F01200FF0E0001816F000EDE
:10148000806F160E826F180E836F000E846F2C0E05
:10149000856F180E866F000E876F340E886F180EDA
:1014A000896F000E8A6F460E8B6F180E8C6F000EC0
:1014B0008D6F4A0E206E180E216E000E226E560E93
:1014C000236E180E246E000E256E5E0E296E180E09
:1014D0002A6E000E2B6E6A0E2C6E180E2D6E000EEC
:1014E0002E6E6E0E266E180E276E000E286E700E73
:1014F000576E780E8E6F180E8F6F000E906F7A0EEB
:10150000916F180E926F000E936F7E0E946F180EEF
:10151000956F000E966F820E976F180E986F000EE3
:10152000996F860E9A6F180E9B6F000E9C6F8A0E35
:101530009D6F180E9E6F000E9F6F8E0EA06F180E7F
:10154000A16F000EA26F920EA36F180EA46F000E73
:10155000A56F960EA66F180EA76F000EA86F980EB7
:10156000A96F180EAA6F000EAB6F010E166E010E5A
:10157000176E010E186E010E196E000E1A6E030E14
:101580001B6E020E1C6E000E156E000E1D6E1200FC
:10159000AC8A900EAB6E948E949C9EAA03D0AECF74
:1015A000C6F0FBD712003CEC0AF0080EAF6EAC841C
:1015B000C8EC0AF0CCEC07F0020E0C6EFF0E0B6EBE
:1015C000FF0E0A6E0C2E01D007D00B2E01D003D0D7
:1015D0000A2EFED7FAD7F6D7060E0B6EFF0E0A6E4E
:1015E0000B2E01D003D00A2EFED7FAD70A0E0A6EB0
:1015F0000A2EFED782C0C2F083C0C3F084C0C4F0FC
:10160000DDEC07F0F7EC07F0005208E188C0C2F00B
:1016100089C0C3F08AC0C4F0DDEC07F085C0C2F019
:1016200086C0C3F087C0C4F0DDEC07F0030E0C6E7B
:10163000FF0E0B6EFF0E0A6E0C2E01D007D00B2E84
:1016400001D003D00A2EFED7FAD7F6D70B0E0B6EB9
:10165000FF0E0A6E0B2E01D003D00A2EFED7FAD74A
:10166000180E0A6E0A2EFED7D08EF28E1BEC08F0F2
:101670000052D8B4CED021EC08F000C0C2F02AEC61
:1016800008F000500110D8B4C3D08EC0C2F08FC093
:10169000C3F090C0C4F05AEC08F0005203E092ECA2
:1016A00008F0AED091C0C2F092C0C3F093C0C4F0B5
:1016B0005AEC08F0005203E0F6EC09F0A1D094C017
:1016C000C2F095C0C3F096C0C4F05AEC08F00052C6
:1016D00003E0F7EC07F094D097C0C2F098C0C3F0D5
:1016E00099C0C4F05AEC08F0005203E012EC0AF082
:1016F00087D09AC0C2F09BC0C3F09CC0C4F05AEC23
:1017000008F000520AE0580E0001C26F000EC36FCD
:1017100021EC0AF000C016F073D09DC0C2F09EC04C
:10172000C3F09FC0C4F05AEC08F000520AE0580E13
:101730000001C26F000EC36F21EC0AF000C017F069
:101740005FD0A0C0C2F0A1C0C3F0A2C0C4F05AECE8
:1017500008F000520AE0580E0001C26F000EC36F7D
:1017600021EC0AF000C018F04BD0A3C0C2F0A4C016
:10177000C3F0A5C0C4F05AEC08F000520AE0580EBD
:101780000001C26F000EC36F21EC0AF000C019F017
:1017900037D0A6C0C2F0A7C0C3F0A8C0C4F05AECAE
:1017A00008F000520AE0580E0001C26F000EC36F2D
:1017B00021EC0AF000C01AF023D0A9C0C2F0AAC0E0
:1017C000C3F0ABC0C4F05AEC08F000520AE0580E67
:1017D0000001C26F000EC36F21EC0AF000C01BF0C5
:1017E0000FD08BC0C2F08CC0C3F08DC0C4F0DDEC54
:1017F00007F0580E01013E6F000E3F6F6CEC03F0D6
:1018000085C0C2F086C0C3F087C0C4F0DDEC07F02D
:101810002DD72CD7FFD7434E4320436F6E74726F82
:101820006C6C65722076302E310000FF0A436D64C7
:101830003A3E00FF0A4E6F20454550524F4D20441E
:101840006174612E00FF0A3F3A004174204C696DBB
:101850006974732E00FF452D53544F5000FF53659C
:1018600072766F204661756C74004F6B00FF44699F
:101870007361626C656420007300737600FF7264AC
:1018800000FF64656600736D7800736D7900736D99
:101890007A00736D61006D006463796300FFFFFF80
:020000040030CA
:0E000000FFF7FDFEFF7FFFFFFFFFFFFFFFFF8B
:00000001FF
